{
  "_format": "hh-sol-artifact-1",
  "contractName": "sevaMFund",
  "sourceName": "src/contracts/sevaMFund.sol",
  "abi": [
    {
      "inputs": [
        {
          "internalType": "uint256",
          "name": "_projectTax",
          "type": "uint256"
        }
      ],
      "stateMutability": "nonpayable",
      "type": "constructor"
    },
    {
      "anonymous": false,
      "inputs": [
        {
          "indexed": false,
          "internalType": "uint256",
          "name": "id",
          "type": "uint256"
        },
        {
          "indexed": false,
          "internalType": "string",
          "name": "actionType",
          "type": "string"
        },
        {
          "indexed": true,
          "internalType": "address",
          "name": "executor",
          "type": "address"
        },
        {
          "indexed": false,
          "internalType": "uint256",
          "name": "timestamp",
          "type": "uint256"
        }
      ],
      "name": "Action",
      "type": "event"
    },
    {
      "inputs": [
        {
          "internalType": "uint256",
          "name": "id",
          "type": "uint256"
        }
      ],
      "name": "backProject",
      "outputs": [
        {
          "internalType": "bool",
          "name": "",
          "type": "bool"
        }
      ],
      "stateMutability": "payable",
      "type": "function"
    },
    {
      "inputs": [],
      "name": "balance",
      "outputs": [
        {
          "internalType": "uint256",
          "name": "",
          "type": "uint256"
        }
      ],
      "stateMutability": "view",
      "type": "function"
    },
    {
      "inputs": [
        {
          "internalType": "uint256",
          "name": "_taxPct",
          "type": "uint256"
        }
      ],
      "name": "changeTax",
      "outputs": [],
      "stateMutability": "nonpayable",
      "type": "function"
    },
    {
      "inputs": [
        {
          "internalType": "string",
          "name": "title",
          "type": "string"
        },
        {
          "internalType": "string",
          "name": "description",
          "type": "string"
        },
        {
          "internalType": "string",
          "name": "imageURL",
          "type": "string"
        },
        {
          "internalType": "uint256",
          "name": "cost",
          "type": "uint256"
        }
      ],
      "name": "createProject",
      "outputs": [
        {
          "internalType": "bool",
          "name": "",
          "type": "bool"
        }
      ],
      "stateMutability": "nonpayable",
      "type": "function"
    },
    {
      "inputs": [
        {
          "internalType": "uint256",
          "name": "id",
          "type": "uint256"
        }
      ],
      "name": "deleteProject",
      "outputs": [
        {
          "internalType": "bool",
          "name": "",
          "type": "bool"
        }
      ],
      "stateMutability": "nonpayable",
      "type": "function"
    },
    {
      "inputs": [
        {
          "internalType": "uint256",
          "name": "id",
          "type": "uint256"
        }
      ],
      "name": "getBackers",
      "outputs": [
        {
          "components": [
            {
              "internalType": "address",
              "name": "owner",
              "type": "address"
            },
            {
              "internalType": "uint256",
              "name": "contribution",
              "type": "uint256"
            },
            {
              "internalType": "uint256",
              "name": "timestamp",
              "type": "uint256"
            },
            {
              "internalType": "bool",
              "name": "refunded",
              "type": "bool"
            }
          ],
          "internalType": "struct sevaMFund.backerStruct[]",
          "name": "",
          "type": "tuple[]"
        }
      ],
      "stateMutability": "view",
      "type": "function"
    },
    {
      "inputs": [
        {
          "internalType": "uint256",
          "name": "id",
          "type": "uint256"
        }
      ],
      "name": "getProject",
      "outputs": [
        {
          "components": [
            {
              "internalType": "uint256",
              "name": "id",
              "type": "uint256"
            },
            {
              "internalType": "address",
              "name": "owner",
              "type": "address"
            },
            {
              "internalType": "string",
              "name": "title",
              "type": "string"
            },
            {
              "internalType": "string",
              "name": "description",
              "type": "string"
            },
            {
              "internalType": "string",
              "name": "imageURL",
              "type": "string"
            },
            {
              "internalType": "uint256",
              "name": "cost",
              "type": "uint256"
            },
            {
              "internalType": "uint256",
              "name": "raised",
              "type": "uint256"
            },
            {
              "internalType": "uint256",
              "name": "timestamp",
              "type": "uint256"
            },
            {
              "internalType": "uint256",
              "name": "backers",
              "type": "uint256"
            },
            {
              "internalType": "enum sevaMFund.statusEnum",
              "name": "status",
              "type": "uint8"
            }
          ],
          "internalType": "struct sevaMFund.projectStruct",
          "name": "",
          "type": "tuple"
        }
      ],
      "stateMutability": "view",
      "type": "function"
    },
    {
      "inputs": [],
      "name": "getProjects",
      "outputs": [
        {
          "components": [
            {
              "internalType": "uint256",
              "name": "id",
              "type": "uint256"
            },
            {
              "internalType": "address",
              "name": "owner",
              "type": "address"
            },
            {
              "internalType": "string",
              "name": "title",
              "type": "string"
            },
            {
              "internalType": "string",
              "name": "description",
              "type": "string"
            },
            {
              "internalType": "string",
              "name": "imageURL",
              "type": "string"
            },
            {
              "internalType": "uint256",
              "name": "cost",
              "type": "uint256"
            },
            {
              "internalType": "uint256",
              "name": "raised",
              "type": "uint256"
            },
            {
              "internalType": "uint256",
              "name": "timestamp",
              "type": "uint256"
            },
            {
              "internalType": "uint256",
              "name": "backers",
              "type": "uint256"
            },
            {
              "internalType": "enum sevaMFund.statusEnum",
              "name": "status",
              "type": "uint8"
            }
          ],
          "internalType": "struct sevaMFund.projectStruct[]",
          "name": "",
          "type": "tuple[]"
        }
      ],
      "stateMutability": "view",
      "type": "function"
    },
    {
      "inputs": [],
      "name": "owner",
      "outputs": [
        {
          "internalType": "address",
          "name": "",
          "type": "address"
        }
      ],
      "stateMutability": "view",
      "type": "function"
    },
    {
      "inputs": [
        {
          "internalType": "uint256",
          "name": "id",
          "type": "uint256"
        }
      ],
      "name": "payOutProject",
      "outputs": [
        {
          "internalType": "bool",
          "name": "",
          "type": "bool"
        }
      ],
      "stateMutability": "nonpayable",
      "type": "function"
    },
    {
      "inputs": [],
      "name": "projectCount",
      "outputs": [
        {
          "internalType": "uint256",
          "name": "",
          "type": "uint256"
        }
      ],
      "stateMutability": "view",
      "type": "function"
    },
    {
      "inputs": [
        {
          "internalType": "uint256",
          "name": "",
          "type": "uint256"
        }
      ],
      "name": "projectExist",
      "outputs": [
        {
          "internalType": "bool",
          "name": "",
          "type": "bool"
        }
      ],
      "stateMutability": "view",
      "type": "function"
    },
    {
      "inputs": [],
      "name": "projectTax",
      "outputs": [
        {
          "internalType": "uint256",
          "name": "",
          "type": "uint256"
        }
      ],
      "stateMutability": "view",
      "type": "function"
    },
    {
      "inputs": [
        {
          "internalType": "uint256",
          "name": "id",
          "type": "uint256"
        }
      ],
      "name": "requestRefund",
      "outputs": [
        {
          "internalType": "bool",
          "name": "",
          "type": "bool"
        }
      ],
      "stateMutability": "nonpayable",
      "type": "function"
    },
    {
      "inputs": [],
      "name": "stats",
      "outputs": [
        {
          "internalType": "uint256",
          "name": "totalProjects",
          "type": "uint256"
        },
        {
          "internalType": "uint256",
          "name": "totalBacking",
          "type": "uint256"
        },
        {
          "internalType": "uint256",
          "name": "totalDonations",
          "type": "uint256"
        }
      ],
      "stateMutability": "view",
      "type": "function"
    },
    {
      "inputs": [
        {
          "internalType": "uint256",
          "name": "id",
          "type": "uint256"
        },
        {
          "internalType": "string",
          "name": "title",
          "type": "string"
        },
        {
          "internalType": "string",
          "name": "description",
          "type": "string"
        },
        {
          "internalType": "string",
          "name": "imageURL",
          "type": "string"
        }
      ],
      "name": "updateProject",
      "outputs": [
        {
          "internalType": "bool",
          "name": "",
          "type": "bool"
        }
      ],
      "stateMutability": "nonpayable",
      "type": "function"
    }
  ],
  "bytecode": "0x608060405234801561001057600080fd5b506040516121a23803806121a283398101604081905261002f91610049565b600080546001600160a01b03191633179055600155610062565b60006020828403121561005b57600080fd5b5051919050565b612131806100716000396000f3fe6080604052600436106100f35760003560e01c8063a4b2409e1161008a578063d24cd3ec11610059578063d24cd3ec146102b1578063d80528ae146102c7578063dcc6012814610301578063f0f3f2c81461032357600080fd5b8063a4b2409e1461022e578063b531dcba1461024e578063b69ef8a81461026e578063c9168b721461028457600080fd5b80638593054b116100c65780638593054b146101935780638b9b3fd7146101c35780638da5cb5b146101e35780639f39a1941461021b57600080fd5b80631ca73896146100f857806336fbad261461012d5780633e45c8af146101515780634cd0cb2814610173575b600080fd5b34801561010457600080fd5b50610118610113366004611c58565b610350565b60405190151581526020015b60405180910390f35b34801561013957600080fd5b5061014360025481565b604051908152602001610124565b34801561015d57600080fd5b5061017161016c366004611ce8565b61079d565b005b34801561017f57600080fd5b5061011861018e366004611ce8565b6107f2565b34801561019f57600080fd5b506101186101ae366004611ce8565b600a6020526000908152604090205460ff1681565b3480156101cf57600080fd5b506101186101de366004611d01565b61096e565b3480156101ef57600080fd5b50600054610203906001600160a01b031681565b6040516001600160a01b039091168152602001610124565b610118610229366004611ce8565b610baa565b34801561023a57600080fd5b50610118610249366004611ce8565b610f3c565b34801561025a57600080fd5b50610118610269366004611ce8565b61106e565b34801561027a57600080fd5b5061014360035481565b34801561029057600080fd5b506102a461029f366004611ce8565b61115d565b6040516101249190611d93565b3480156102bd57600080fd5b5061014360015481565b3480156102d357600080fd5b506004546005546006546102e692919083565b60408051938452602084019290925290820152606001610124565b34801561030d57600080fd5b506103166111ff565b6040516101249190611f40565b34801561032f57600080fd5b5061034361033e366004611ce8565b611490565b6040516101249190611fa2565b60008085511161039f5760405162461bcd60e51b81526020600482015260156024820152745469746c652063616e6e6f7420626520656d70747960581b60448201526064015b60405180910390fd5b60008451116103f05760405162461bcd60e51b815260206004820152601b60248201527f4465736372697074696f6e2063616e6e6f7420626520656d70747900000000006044820152606401610396565b600083511161043c5760405162461bcd60e51b8152602060048201526018602482015277496d61676555524c2063616e6e6f7420626520656d70747960401b6044820152606401610396565b600082116104825760405162461bcd60e51b8152602060048201526013602482015272436f73742063616e6e6f74206265207a65726f60681b6044820152606401610396565b61048a611ab0565b600254815233602080830191825260408301888152606084018890526080840187905260a084018690524260e08501526007805460018101825560009190915284517fa66cc928b5edb82af9bd49922954155ab7b0942694bea4ce44661d9a8736c688600a90920291820190815593517fa66cc928b5edb82af9bd49922954155ab7b0942694bea4ce44661d9a8736c689820180546001600160a01b0319166001600160a01b039092169190911790559051805185949361056f937fa66cc928b5edb82af9bd49922954155ab7b0942694bea4ce44661d9a8736c68a01920190611b1c565b506060820151805161058b916003840191602090910190611b1c565b50608082015180516105a7916004840191602090910190611b1c565b5060a0820151600582015560c0820151600682015560e08201516007820155610100820151600882015561012082015160098201805460ff191660018360048111156105f5576105f5611e4f565b021790555050600280546000908152600a602081815260408084208054600160ff1990911681179091553385526008835281852080548083018255908652948390208851959094029093019384558682015192840180546001600160a01b0319166001600160a01b0390941693909317909255908501518051869550929361068593908501929190910190611b1c565b50606082015180516106a1916003840191602090910190611b1c565b50608082015180516106bd916004840191602090910190611b1c565b5060a0820151600582015560c0820151600682015560e08201516007820155610100820151600882015561012082015160098201805460ff1916600183600481111561070b5761070b611e4f565b021790555050506001600460000160008282546107289190611fd2565b90915550506002805433916000805160206120dc8339815191529190600061074f83611fea565b9091555060408051918252606060208301819052600f908301526e141493d29150d50810d49150551151608a1b6080830152429082015260a00160405180910390a250600195945050505050565b6000546001600160a01b031633146107ed5760405162461bcd60e51b81526020600482015260136024820152724f776e6572207265736572766564206f6e6c7960681b6044820152606401610396565b600155565b6000806007838154811061080857610808612005565b600091825260209091206009600a90920201015460ff16600481111561083057610830611e4f565b146108785760405162461bcd60e51b8152602060048201526018602482015277141c9bda9958dd081b9bc81b1bdb99d95c881bdc195b995960421b6044820152606401610396565b6007828154811061088b5761088b612005565b60009182526020909120600a90910201600101546001600160a01b031633146108c65760405162461bcd60e51b81526004016103969061201b565b6003600783815481106108db576108db612005565b600091825260209091206009600a9092020101805460ff1916600183600481111561090857610908611e4f565b021790555061091682611766565b60408051838152606060208201819052600f908201526e141493d29150d50811115311551151608a1b60808201524281830152905133916000805160206120dc833981519152919081900360a00190a2506001919050565b60006007858154811061098357610983612005565b60009182526020909120600a90910201600101546001600160a01b031633146109be5760405162461bcd60e51b81526004016103969061201b565b6000845111610a075760405162461bcd60e51b81526020600482015260156024820152745469746c652063616e6e6f7420626520656d70747960581b6044820152606401610396565b6000835111610a585760405162461bcd60e51b815260206004820152601b60248201527f4465736372697074696f6e2063616e6e6f7420626520656d70747900000000006044820152606401610396565b6000825111610aa45760405162461bcd60e51b8152602060048201526018602482015277496d61676555524c2063616e6e6f7420626520656d70747960401b6044820152606401610396565b8360078681548110610ab857610ab8612005565b90600052602060002090600a02016002019080519060200190610adc929190611b1c565b508260078681548110610af157610af1612005565b90600052602060002090600a02016003019080519060200190610b15929190611b1c565b508160078681548110610b2a57610b2a612005565b90600052602060002090600a02016004019080519060200190610b4e929190611b1c565b5060408051868152606060208201819052600f908201526e141493d29150d50815541110551151608a1b60808201524281830152905133916000805160206120dc833981519152919081900360a00190a2506001949350505050565b6000803411610bfb5760405162461bcd60e51b815260206004820152601f60248201527f4574686572206d7573742062652067726561746572207468616e207a65726f006044820152606401610396565b6000828152600a602052604090205460ff16610c4d5760405162461bcd60e51b8152602060048201526011602482015270141c9bda9958dd081b9bdd08199bdd5b99607a1b6044820152606401610396565b600060078381548110610c6257610c62612005565b600091825260209091206009600a90920201015460ff166004811115610c8a57610c8a611e4f565b14610cd25760405162461bcd60e51b8152602060048201526018602482015277141c9bda9958dd081b9bc81b1bdb99d95c881bdc195b995960421b6044820152606401610396565b600160046001016000828254610ce89190611fd2565b909155505060068054349190600090610d02908490611fd2565b925050819055503460078381548110610d1d57610d1d612005565b90600052602060002090600a02016006016000828254610d3d9190611fd2565b92505081905550600160078381548110610d5957610d59612005565b90600052602060002090600a02016008016000828254610d799190611fd2565b9091555050600082815260096020908152604080832081516080808201845233808352348387019081524284870181815260608087018b8152885460018082018b55998d529b8b902097516004909c0290970180546001600160a01b0319166001600160a01b03909c169b909b178b559251968a01969096559451600289015592516003909701805460ff1916971515979097179096558351888152948501829052600e918501919091526d141493d29150d508109050d2d15160921b90840152908201526000805160206120dc8339815191529060a00160405180910390a260078281548110610e6c57610e6c612005565b90600052602060002090600a02016005015460078381548110610e9157610e91612005565b90600052602060002090600a02016006015410610f3457600160078381548110610ebd57610ebd612005565b600091825260209091206009600a9092020101805460ff19166001836004811115610eea57610eea611e4f565b021790555060078281548110610f0257610f02612005565b90600052602060002090600a02016006015460036000828254610f259190611fd2565b90915550610f349050826118d4565b506001919050565b6000600260078381548110610f5357610f53612005565b600091825260209091206009600a90920201015460ff166004811115610f7b57610f7b611e4f565b141580610fc35750600360078381548110610f9857610f98612005565b600091825260209091206009600a90920201015460ff166004811115610fc057610fc0611e4f565b14155b61101e5760405162461bcd60e51b815260206004820152602660248201527f50726f6a656374206e6f74206d61726b656420617320726576657274206f722060448201526564656c65746560d01b6064820152608401610396565b60026007838154811061103357611033612005565b600091825260209091206009600a9092020101805460ff1916600183600481111561106057611060611e4f565b0217905550610f3482611766565b600060016007838154811061108557611085612005565b600091825260209091206009600a90920201015460ff1660048111156110ad576110ad611e4f565b146110f15760405162461bcd60e51b8152602060048201526014602482015273141c9bda9958dd081b9bdd081054141493d5915160621b6044820152606401610396565b6007828154811061110457611104612005565b60009182526020909120600a90910201600101546001600160a01b031633148061113857506000546001600160a01b031633145b6111545760405162461bcd60e51b81526004016103969061201b565b610f34826118d4565b606060096000838152602001908152602001600020805480602002602001604051908101604052809291908181526020016000905b828210156111f4576000848152602090819020604080516080810182526004860290920180546001600160a01b03168352600180820154848601526002820154928401929092526003015460ff16151560608301529083529092019101611192565b505050509050919050565b60606007805480602002602001604051908101604052809291908181526020016000905b828210156114875760008481526020908190206040805161014081018252600a86029092018054835260018101546001600160a01b0316938301939093526002830180549293929184019161127790612048565b80601f01602080910402602001604051908101604052809291908181526020018280546112a390612048565b80156112f05780601f106112c5576101008083540402835291602001916112f0565b820191906000526020600020905b8154815290600101906020018083116112d357829003601f168201915b5050505050815260200160038201805461130990612048565b80601f016020809104026020016040519081016040528092919081815260200182805461133590612048565b80156113825780601f1061135757610100808354040283529160200191611382565b820191906000526020600020905b81548152906001019060200180831161136557829003601f168201915b5050505050815260200160048201805461139b90612048565b80601f01602080910402602001604051908101604052809291908181526020018280546113c790612048565b80156114145780601f106113e957610100808354040283529160200191611414565b820191906000526020600020905b8154815290600101906020018083116113f757829003601f168201915b505050918352505060058201546020820152600682015460408201526007820154606082015260088201546080820152600982015460a09091019060ff16600481111561146357611463611e4f565b600481111561147457611474611e4f565b8152505081526020019060010190611223565b50505050905090565b611498611ab0565b6000828152600a602052604090205460ff166114ea5760405162461bcd60e51b8152602060048201526011602482015270141c9bda9958dd081b9bdd08199bdd5b99607a1b6044820152606401610396565b600782815481106114fd576114fd612005565b90600052602060002090600a020160405180610140016040529081600082015481526020016001820160009054906101000a90046001600160a01b03166001600160a01b03166001600160a01b0316815260200160028201805461156090612048565b80601f016020809104026020016040519081016040528092919081815260200182805461158c90612048565b80156115d95780601f106115ae576101008083540402835291602001916115d9565b820191906000526020600020905b8154815290600101906020018083116115bc57829003601f168201915b505050505081526020016003820180546115f290612048565b80601f016020809104026020016040519081016040528092919081815260200182805461161e90612048565b801561166b5780601f106116405761010080835404028352916020019161166b565b820191906000526020600020905b81548152906001019060200180831161164e57829003601f168201915b5050505050815260200160048201805461168490612048565b80601f01602080910402602001604051908101604052809291908181526020018280546116b090612048565b80156116fd5780601f106116d2576101008083540402835291602001916116fd565b820191906000526020600020905b8154815290600101906020018083116116e057829003601f168201915b505050918352505060058201546020820152600682015460408201526007820154606082015260088201546080820152600982015460a09091019060ff16600481111561174c5761174c611e4f565b600481111561175d5761175d611e4f565b90525092915050565b60005b6000828152600960205260409020548110156118d057600082815260096020526040812080548390811061179f5761179f612005565b6000918252602080832060049092029091015485835260099091526040822080546001600160a01b03909216935090849081106117de576117de612005565b9060005260206000209060040201600101549050600160096000868152602001908152602001600020848154811061181857611818612005565b906000526020600020906004020160030160006101000a81548160ff0219169083151502179055504260096000868152602001908152602001600020848154811061186557611865612005565b9060005260206000209060040201600201819055506118848282611a4b565b60016004600101600082825461189a9190612083565b9091555050600680548291906000906118b4908490612083565b92505081905550505080806118c890611fea565b915050611769565b5050565b6000600782815481106118e9576118e9612005565b90600052602060002090600a0201600601549050600060646001548361190f919061209a565b61191991906120b9565b905060046007848154811061193057611930612005565b600091825260209091206009600a9092020101805460ff1916600183600481111561195d5761195d611e4f565b02179055506119a46007848154811061197857611978612005565b600091825260209091206001600a9092020101546001600160a01b031661199f8385612083565b611a4b565b6000546119ba906001600160a01b031682611a4b565b600783815481106119cd576119cd612005565b90600052602060002090600a020160060154600360008282546119f09190612083565b9091555050604080518481526060602082018190526010908201526f141493d29150d508141052510813d55560821b60808201524281830152905133916000805160206120dc833981519152919081900360a00190a2505050565b6000826001600160a01b03168260405160006040518083038185875af1925050503d8060008114611a98576040519150601f19603f3d011682016040523d82523d6000602084013e611a9d565b606091505b5050905080611aab57600080fd5b505050565b6040518061014001604052806000815260200160006001600160a01b031681526020016060815260200160608152602001606081526020016000815260200160008152602001600081526020016000815260200160006004811115611b1757611b17611e4f565b905290565b828054611b2890612048565b90600052602060002090601f016020900481019282611b4a5760008555611b90565b82601f10611b6357805160ff1916838001178555611b90565b82800160010185558215611b90579182015b82811115611b90578251825591602001919060010190611b75565b50611b9c929150611ba0565b5090565b5b80821115611b9c5760008155600101611ba1565b634e487b7160e01b600052604160045260246000fd5b600082601f830112611bdc57600080fd5b813567ffffffffffffffff80821115611bf757611bf7611bb5565b604051601f8301601f19908116603f01168101908282118183101715611c1f57611c1f611bb5565b81604052838152866020858801011115611c3857600080fd5b836020870160208301376000602085830101528094505050505092915050565b60008060008060808587031215611c6e57600080fd5b843567ffffffffffffffff80821115611c8657600080fd5b611c9288838901611bcb565b95506020870135915080821115611ca857600080fd5b611cb488838901611bcb565b94506040870135915080821115611cca57600080fd5b50611cd787828801611bcb565b949793965093946060013593505050565b600060208284031215611cfa57600080fd5b5035919050565b60008060008060808587031215611d1757600080fd5b84359350602085013567ffffffffffffffff80821115611d3657600080fd5b611d4288838901611bcb565b94506040870135915080821115611d5857600080fd5b611d6488838901611bcb565b93506060870135915080821115611d7a57600080fd5b50611d8787828801611bcb565b91505092959194509250565b602080825282518282018190526000919060409081850190868401855b82811015611df557815180516001600160a01b031685528681015187860152858101518686015260609081015115159085015260809093019290850190600101611db0565b5091979650505050505050565b6000815180845260005b81811015611e2857602081850181015186830182015201611e0c565b81811115611e3a576000602083870101525b50601f01601f19169290920160200192915050565b634e487b7160e01b600052602160045260246000fd5b60058110611e8357634e487b7160e01b600052602160045260246000fd5b9052565b6000610140825184526020830151611eaa60208601826001600160a01b03169052565b506040830151816040860152611ec282860182611e02565b91505060608301518482036060860152611edc8282611e02565b91505060808301518482036080860152611ef68282611e02565b91505060a083015160a085015260c083015160c085015260e083015160e085015261010080840151818601525061012080840151611f3682870182611e65565b5090949350505050565b6000602080830181845280855180835260408601915060408160051b870101925083870160005b82811015611f9557603f19888603018452611f83858351611e87565b94509285019290850190600101611f67565b5092979650505050505050565b602081526000611fb56020830184611e87565b9392505050565b634e487b7160e01b600052601160045260246000fd5b60008219821115611fe557611fe5611fbc565b500190565b6000600019821415611ffe57611ffe611fbc565b5060010190565b634e487b7160e01b600052603260045260246000fd5b602080825260139082015272556e617574686f72697a656420456e7469747960681b604082015260600190565b600181811c9082168061205c57607f821691505b6020821081141561207d57634e487b7160e01b600052602260045260246000fd5b50919050565b60008282101561209557612095611fbc565b500390565b60008160001904831182151516156120b4576120b4611fbc565b500290565b6000826120d657634e487b7160e01b600052601260045260246000fd5b50049056feaee8e5d3bbb2f71a951b5632cee20f7ac487b9f8ab4f66a236f7694b13af7c6aa2646970667358221220e39d7dbc2708d4e5e9b4fbf103352dcf38f4cfc586cecf4064e96dc2236eb96664736f6c634300080b0033",
  "linkReferences": {},
  "deployedLinkReferences": {}
}