{"src/contracts/sevaMFund.sol":{"sevaMFund":{"abi":[{"inputs":[{"internalType":"uint256","name":"_projectTax","type":"uint256"}],"stateMutability":"nonpayable","type":"constructor"},{"anonymous":false,"inputs":[{"indexed":false,"internalType":"uint256","name":"id","type":"uint256"},{"indexed":false,"internalType":"string","name":"actionType","type":"string"},{"indexed":true,"internalType":"address","name":"executor","type":"address"},{"indexed":false,"internalType":"uint256","name":"timestamp","type":"uint256"}],"name":"Action","type":"event"},{"inputs":[{"internalType":"uint256","name":"id","type":"uint256"}],"name":"backProject","outputs":[{"internalType":"bool","name":"","type":"bool"}],"stateMutability":"payable","type":"function"},{"inputs":[],"name":"balance","outputs":[{"internalType":"uint256","name":"","type":"uint256"}],"stateMutability":"view","type":"function"},{"inputs":[{"internalType":"uint256","name":"_taxPct","type":"uint256"}],"name":"changeTax","outputs":[],"stateMutability":"nonpayable","type":"function"},{"inputs":[{"internalType":"string","name":"title","type":"string"},{"internalType":"string","name":"description","type":"string"},{"internalType":"string","name":"imageURL","type":"string"},{"internalType":"uint256","name":"cost","type":"uint256"}],"name":"createProject","outputs":[{"internalType":"bool","name":"","type":"bool"}],"stateMutability":"nonpayable","type":"function"},{"inputs":[{"internalType":"uint256","name":"id","type":"uint256"}],"name":"deleteProject","outputs":[{"internalType":"bool","name":"","type":"bool"}],"stateMutability":"nonpayable","type":"function"},{"inputs":[{"internalType":"uint256","name":"id","type":"uint256"}],"name":"getBackers","outputs":[{"components":[{"internalType":"address","name":"owner","type":"address"},{"internalType":"uint256","name":"contribution","type":"uint256"},{"internalType":"uint256","name":"timestamp","type":"uint256"},{"internalType":"bool","name":"refunded","type":"bool"}],"internalType":"struct sevaMFund.backerStruct[]","name":"","type":"tuple[]"}],"stateMutability":"view","type":"function"},{"inputs":[{"internalType":"uint256","name":"id","type":"uint256"}],"name":"getProject","outputs":[{"components":[{"internalType":"uint256","name":"id","type":"uint256"},{"internalType":"address","name":"owner","type":"address"},{"internalType":"string","name":"title","type":"string"},{"internalType":"string","name":"description","type":"string"},{"internalType":"string","name":"imageURL","type":"string"},{"internalType":"uint256","name":"cost","type":"uint256"},{"internalType":"uint256","name":"raised","type":"uint256"},{"internalType":"uint256","name":"timestamp","type":"uint256"},{"internalType":"uint256","name":"backers","type":"uint256"},{"internalType":"enum sevaMFund.statusEnum","name":"status","type":"uint8"}],"internalType":"struct sevaMFund.projectStruct","name":"","type":"tuple"}],"stateMutability":"view","type":"function"},{"inputs":[],"name":"getProjects","outputs":[{"components":[{"internalType":"uint256","name":"id","type":"uint256"},{"internalType":"address","name":"owner","type":"address"},{"internalType":"string","name":"title","type":"string"},{"internalType":"string","name":"description","type":"string"},{"internalType":"string","name":"imageURL","type":"string"},{"internalType":"uint256","name":"cost","type":"uint256"},{"internalType":"uint256","name":"raised","type":"uint256"},{"internalType":"uint256","name":"timestamp","type":"uint256"},{"internalType":"uint256","name":"backers","type":"uint256"},{"internalType":"enum sevaMFund.statusEnum","name":"status","type":"uint8"}],"internalType":"struct sevaMFund.projectStruct[]","name":"","type":"tuple[]"}],"stateMutability":"view","type":"function"},{"inputs":[],"name":"owner","outputs":[{"internalType":"address","name":"","type":"address"}],"stateMutability":"view","type":"function"},{"inputs":[{"internalType":"uint256","name":"id","type":"uint256"}],"name":"payOutProject","outputs":[{"internalType":"bool","name":"","type":"bool"}],"stateMutability":"nonpayable","type":"function"},{"inputs":[],"name":"projectCount","outputs":[{"internalType":"uint256","name":"","type":"uint256"}],"stateMutability":"view","type":"function"},{"inputs":[{"internalType":"uint256","name":"","type":"uint256"}],"name":"projectExist","outputs":[{"internalType":"bool","name":"","type":"bool"}],"stateMutability":"view","type":"function"},{"inputs":[],"name":"projectTax","outputs":[{"internalType":"uint256","name":"","type":"uint256"}],"stateMutability":"view","type":"function"},{"inputs":[],"name":"stats","outputs":[{"internalType":"uint256","name":"totalProjects","type":"uint256"},{"internalType":"uint256","name":"totalBacking","type":"uint256"},{"internalType":"uint256","name":"totalDonations","type":"uint256"}],"stateMutability":"view","type":"function"},{"inputs":[{"internalType":"uint256","name":"id","type":"uint256"},{"internalType":"string","name":"title","type":"string"},{"internalType":"string","name":"description","type":"string"},{"internalType":"string","name":"imageURL","type":"string"}],"name":"updateProject","outputs":[{"internalType":"bool","name":"","type":"bool"}],"stateMutability":"nonpayable","type":"function"}],"evm":{"bytecode":{"linkReferences":{},"object":"608060405234801561001057600080fd5b5060405161204538038061204583398101604081905261002f91610049565b600080546001600160a01b03191633179055600155610062565b60006020828403121561005b57600080fd5b5051919050565b611fd4806100716000396000f3fe6080604052600436106100e85760003560e01c80639f39a1941161008a578063d24cd3ec11610059578063d24cd3ec14610286578063d80528ae1461029c578063dcc60128146102d6578063f0f3f2c8146102f857600080fd5b80639f39a19414610210578063b531dcba14610223578063b69ef8a814610243578063c9168b721461025957600080fd5b80634cd0cb28116100c65780634cd0cb28146101685780638593054b146101885780638b9b3fd7146101b85780638da5cb5b146101d857600080fd5b80631ca73896146100ed57806336fbad26146101225780633e45c8af14610146575b600080fd5b3480156100f957600080fd5b5061010d610108366004611afb565b610325565b60405190151581526020015b60405180910390f35b34801561012e57600080fd5b5061013860025481565b604051908152602001610119565b34801561015257600080fd5b50610166610161366004611b8b565b610772565b005b34801561017457600080fd5b5061010d610183366004611b8b565b6107c7565b34801561019457600080fd5b5061010d6101a3366004611b8b565b600a6020526000908152604090205460ff1681565b3480156101c457600080fd5b5061010d6101d3366004611ba4565b610943565b3480156101e457600080fd5b506000546101f8906001600160a01b031681565b6040516001600160a01b039091168152602001610119565b61010d61021e366004611b8b565b610b7f565b34801561022f57600080fd5b5061010d61023e366004611b8b565b610f11565b34801561024f57600080fd5b5061013860035481565b34801561026557600080fd5b50610279610274366004611b8b565b611000565b6040516101199190611c36565b34801561029257600080fd5b5061013860015481565b3480156102a857600080fd5b506004546005546006546102bb92919083565b60408051938452602084019290925290820152606001610119565b3480156102e257600080fd5b506102eb6110a2565b6040516101199190611de3565b34801561030457600080fd5b50610318610313366004611b8b565b611333565b6040516101199190611e45565b6000808551116103745760405162461bcd60e51b81526020600482015260156024820152745469746c652063616e6e6f7420626520656d70747960581b60448201526064015b60405180910390fd5b60008451116103c55760405162461bcd60e51b815260206004820152601b60248201527f4465736372697074696f6e2063616e6e6f7420626520656d7074790000000000604482015260640161036b565b60008351116104115760405162461bcd60e51b8152602060048201526018602482015277496d61676555524c2063616e6e6f7420626520656d70747960401b604482015260640161036b565b600082116104575760405162461bcd60e51b8152602060048201526013602482015272436f73742063616e6e6f74206265207a65726f60681b604482015260640161036b565b61045f611953565b600254815233602080830191825260408301888152606084018890526080840187905260a084018690524260e08501526007805460018101825560009190915284517fa66cc928b5edb82af9bd49922954155ab7b0942694bea4ce44661d9a8736c688600a90920291820190815593517fa66cc928b5edb82af9bd49922954155ab7b0942694bea4ce44661d9a8736c689820180546001600160a01b0319166001600160a01b0390921691909117905590518051859493610544937fa66cc928b5edb82af9bd49922954155ab7b0942694bea4ce44661d9a8736c68a019201906119bf565b50606082015180516105609160038401916020909101906119bf565b506080820151805161057c9160048401916020909101906119bf565b5060a0820151600582015560c0820151600682015560e08201516007820155610100820151600882015561012082015160098201805460ff191660018360048111156105ca576105ca611cf2565b021790555050600280546000908152600a602081815260408084208054600160ff1990911681179091553385526008835281852080548083018255908652948390208851959094029093019384558682015192840180546001600160a01b0319166001600160a01b0390941693909317909255908501518051869550929361065a939085019291909101906119bf565b50606082015180516106769160038401916020909101906119bf565b50608082015180516106929160048401916020909101906119bf565b5060a0820151600582015560c0820151600682015560e08201516007820155610100820151600882015561012082015160098201805460ff191660018360048111156106e0576106e0611cf2565b021790555050506001600460000160008282546106fd9190611e75565b9091555050600280543391600080516020611f7f8339815191529190600061072483611e8d565b9091555060408051918252606060208301819052600f908301526e141493d29150d50810d49150551151608a1b6080830152429082015260a00160405180910390a250600195945050505050565b6000546001600160a01b031633146107c25760405162461bcd60e51b81526020600482015260136024820152724f776e6572207265736572766564206f6e6c7960681b604482015260640161036b565b600155565b600080600783815481106107dd576107dd611ea8565b600091825260209091206009600a90920201015460ff16600481111561080557610805611cf2565b1461084d5760405162461bcd60e51b8152602060048201526018602482015277141c9bda9958dd081b9bc81b1bdb99d95c881bdc195b995960421b604482015260640161036b565b6007828154811061086057610860611ea8565b60009182526020909120600a90910201600101546001600160a01b0316331461089b5760405162461bcd60e51b815260040161036b90611ebe565b6003600783815481106108b0576108b0611ea8565b600091825260209091206009600a9092020101805460ff191660018360048111156108dd576108dd611cf2565b02179055506108eb82611609565b60408051838152606060208201819052600f908201526e141493d29150d50811115311551151608a1b6080820152428183015290513391600080516020611f7f833981519152919081900360a00190a2506001919050565b60006007858154811061095857610958611ea8565b60009182526020909120600a90910201600101546001600160a01b031633146109935760405162461bcd60e51b815260040161036b90611ebe565b60008451116109dc5760405162461bcd60e51b81526020600482015260156024820152745469746c652063616e6e6f7420626520656d70747960581b604482015260640161036b565b6000835111610a2d5760405162461bcd60e51b815260206004820152601b60248201527f4465736372697074696f6e2063616e6e6f7420626520656d7074790000000000604482015260640161036b565b6000825111610a795760405162461bcd60e51b8152602060048201526018602482015277496d61676555524c2063616e6e6f7420626520656d70747960401b604482015260640161036b565b8360078681548110610a8d57610a8d611ea8565b90600052602060002090600a02016002019080519060200190610ab19291906119bf565b508260078681548110610ac657610ac6611ea8565b90600052602060002090600a02016003019080519060200190610aea9291906119bf565b508160078681548110610aff57610aff611ea8565b90600052602060002090600a02016004019080519060200190610b239291906119bf565b5060408051868152606060208201819052600f908201526e141493d29150d50815541110551151608a1b6080820152428183015290513391600080516020611f7f833981519152919081900360a00190a2506001949350505050565b6000803411610bd05760405162461bcd60e51b815260206004820152601f60248201527f4574686572206d7573742062652067726561746572207468616e207a65726f00604482015260640161036b565b6000828152600a602052604090205460ff16610c225760405162461bcd60e51b8152602060048201526011602482015270141c9bda9958dd081b9bdd08199bdd5b99607a1b604482015260640161036b565b600060078381548110610c3757610c37611ea8565b600091825260209091206009600a90920201015460ff166004811115610c5f57610c5f611cf2565b14610ca75760405162461bcd60e51b8152602060048201526018602482015277141c9bda9958dd081b9bc81b1bdb99d95c881bdc195b995960421b604482015260640161036b565b600160046001016000828254610cbd9190611e75565b909155505060068054349190600090610cd7908490611e75565b925050819055503460078381548110610cf257610cf2611ea8565b90600052602060002090600a02016006016000828254610d129190611e75565b92505081905550600160078381548110610d2e57610d2e611ea8565b90600052602060002090600a02016008016000828254610d4e9190611e75565b9091555050600082815260096020908152604080832081516080808201845233808352348387019081524284870181815260608087018b8152885460018082018b55998d529b8b902097516004909c0290970180546001600160a01b0319166001600160a01b03909c169b909b178b559251968a01969096559451600289015592516003909701805460ff1916971515979097179096558351888152948501829052600e918501919091526d141493d29150d508109050d2d15160921b9084015290820152600080516020611f7f8339815191529060a00160405180910390a260078281548110610e4157610e41611ea8565b90600052602060002090600a02016005015460078381548110610e6657610e66611ea8565b90600052602060002090600a02016006015410610f0957600160078381548110610e9257610e92611ea8565b600091825260209091206009600a9092020101805460ff19166001836004811115610ebf57610ebf611cf2565b021790555060078281548110610ed757610ed7611ea8565b90600052602060002090600a02016006015460036000828254610efa9190611e75565b90915550610f09905082611777565b506001919050565b6000600160078381548110610f2857610f28611ea8565b600091825260209091206009600a90920201015460ff166004811115610f5057610f50611cf2565b14610f945760405162461bcd60e51b8152602060048201526014602482015273141c9bda9958dd081b9bdd081054141493d5915160621b604482015260640161036b565b60078281548110610fa757610fa7611ea8565b60009182526020909120600a90910201600101546001600160a01b0316331480610fdb57506000546001600160a01b031633145b610ff75760405162461bcd60e51b815260040161036b90611ebe565b610f0982611777565b606060096000838152602001908152602001600020805480602002602001604051908101604052809291908181526020016000905b82821015611097576000848152602090819020604080516080810182526004860290920180546001600160a01b03168352600180820154848601526002820154928401929092526003015460ff16151560608301529083529092019101611035565b505050509050919050565b60606007805480602002602001604051908101604052809291908181526020016000905b8282101561132a5760008481526020908190206040805161014081018252600a86029092018054835260018101546001600160a01b0316938301939093526002830180549293929184019161111a90611eeb565b80601f016020809104026020016040519081016040528092919081815260200182805461114690611eeb565b80156111935780601f1061116857610100808354040283529160200191611193565b820191906000526020600020905b81548152906001019060200180831161117657829003601f168201915b505050505081526020016003820180546111ac90611eeb565b80601f01602080910402602001604051908101604052809291908181526020018280546111d890611eeb565b80156112255780601f106111fa57610100808354040283529160200191611225565b820191906000526020600020905b81548152906001019060200180831161120857829003601f168201915b5050505050815260200160048201805461123e90611eeb565b80601f016020809104026020016040519081016040528092919081815260200182805461126a90611eeb565b80156112b75780601f1061128c576101008083540402835291602001916112b7565b820191906000526020600020905b81548152906001019060200180831161129a57829003601f168201915b505050918352505060058201546020820152600682015460408201526007820154606082015260088201546080820152600982015460a09091019060ff16600481111561130657611306611cf2565b600481111561131757611317611cf2565b81525050815260200190600101906110c6565b50505050905090565b61133b611953565b6000828152600a602052604090205460ff1661138d5760405162461bcd60e51b8152602060048201526011602482015270141c9bda9958dd081b9bdd08199bdd5b99607a1b604482015260640161036b565b600782815481106113a0576113a0611ea8565b90600052602060002090600a020160405180610140016040529081600082015481526020016001820160009054906101000a90046001600160a01b03166001600160a01b03166001600160a01b0316815260200160028201805461140390611eeb565b80601f016020809104026020016040519081016040528092919081815260200182805461142f90611eeb565b801561147c5780601f106114515761010080835404028352916020019161147c565b820191906000526020600020905b81548152906001019060200180831161145f57829003601f168201915b5050505050815260200160038201805461149590611eeb565b80601f01602080910402602001604051908101604052809291908181526020018280546114c190611eeb565b801561150e5780601f106114e35761010080835404028352916020019161150e565b820191906000526020600020905b8154815290600101906020018083116114f157829003601f168201915b5050505050815260200160048201805461152790611eeb565b80601f016020809104026020016040519081016040528092919081815260200182805461155390611eeb565b80156115a05780601f10611575576101008083540402835291602001916115a0565b820191906000526020600020905b81548152906001019060200180831161158357829003601f168201915b505050918352505060058201546020820152600682015460408201526007820154606082015260088201546080820152600982015460a09091019060ff1660048111156115ef576115ef611cf2565b600481111561160057611600611cf2565b90525092915050565b60005b60008281526009602052604090205481101561177357600082815260096020526040812080548390811061164257611642611ea8565b6000918252602080832060049092029091015485835260099091526040822080546001600160a01b039092169350908490811061168157611681611ea8565b906000526020600020906004020160010154905060016009600086815260200190815260200160002084815481106116bb576116bb611ea8565b906000526020600020906004020160030160006101000a81548160ff0219169083151502179055504260096000868152602001908152602001600020848154811061170857611708611ea8565b90600052602060002090600402016002018190555061172782826118ee565b60016004600101600082825461173d9190611f26565b909155505060068054829190600090611757908490611f26565b925050819055505050808061176b90611e8d565b91505061160c565b5050565b60006007828154811061178c5761178c611ea8565b90600052602060002090600a020160060154905060006064600154836117b29190611f3d565b6117bc9190611f5c565b90506004600784815481106117d3576117d3611ea8565b600091825260209091206009600a9092020101805460ff1916600183600481111561180057611800611cf2565b02179055506118476007848154811061181b5761181b611ea8565b600091825260209091206001600a9092020101546001600160a01b03166118428385611f26565b6118ee565b60005461185d906001600160a01b0316826118ee565b6007838154811061187057611870611ea8565b90600052602060002090600a020160060154600360008282546118939190611f26565b9091555050604080518481526060602082018190526010908201526f141493d29150d508141052510813d55560821b6080820152428183015290513391600080516020611f7f833981519152919081900360a00190a2505050565b6000826001600160a01b03168260405160006040518083038185875af1925050503d806000811461193b576040519150601f19603f3d011682016040523d82523d6000602084013e611940565b606091505b505090508061194e57600080fd5b505050565b6040518061014001604052806000815260200160006001600160a01b0316815260200160608152602001606081526020016060815260200160008152602001600081526020016000815260200160008152602001600060048111156119ba576119ba611cf2565b905290565b8280546119cb90611eeb565b90600052602060002090601f0160209004810192826119ed5760008555611a33565b82601f10611a0657805160ff1916838001178555611a33565b82800160010185558215611a33579182015b82811115611a33578251825591602001919060010190611a18565b50611a3f929150611a43565b5090565b5b80821115611a3f5760008155600101611a44565b634e487b7160e01b600052604160045260246000fd5b600082601f830112611a7f57600080fd5b813567ffffffffffffffff80821115611a9a57611a9a611a58565b604051601f8301601f19908116603f01168101908282118183101715611ac257611ac2611a58565b81604052838152866020858801011115611adb57600080fd5b836020870160208301376000602085830101528094505050505092915050565b60008060008060808587031215611b1157600080fd5b843567ffffffffffffffff80821115611b2957600080fd5b611b3588838901611a6e565b95506020870135915080821115611b4b57600080fd5b611b5788838901611a6e565b94506040870135915080821115611b6d57600080fd5b50611b7a87828801611a6e565b949793965093946060013593505050565b600060208284031215611b9d57600080fd5b5035919050565b60008060008060808587031215611bba57600080fd5b84359350602085013567ffffffffffffffff80821115611bd957600080fd5b611be588838901611a6e565b94506040870135915080821115611bfb57600080fd5b611c0788838901611a6e565b93506060870135915080821115611c1d57600080fd5b50611c2a87828801611a6e565b91505092959194509250565b602080825282518282018190526000919060409081850190868401855b82811015611c9857815180516001600160a01b031685528681015187860152858101518686015260609081015115159085015260809093019290850190600101611c53565b5091979650505050505050565b6000815180845260005b81811015611ccb57602081850181015186830182015201611caf565b81811115611cdd576000602083870101525b50601f01601f19169290920160200192915050565b634e487b7160e01b600052602160045260246000fd5b60058110611d2657634e487b7160e01b600052602160045260246000fd5b9052565b6000610140825184526020830151611d4d60208601826001600160a01b03169052565b506040830151816040860152611d6582860182611ca5565b91505060608301518482036060860152611d7f8282611ca5565b91505060808301518482036080860152611d998282611ca5565b91505060a083015160a085015260c083015160c085015260e083015160e085015261010080840151818601525061012080840151611dd982870182611d08565b5090949350505050565b6000602080830181845280855180835260408601915060408160051b870101925083870160005b82811015611e3857603f19888603018452611e26858351611d2a565b94509285019290850190600101611e0a565b5092979650505050505050565b602081526000611e586020830184611d2a565b9392505050565b634e487b7160e01b600052601160045260246000fd5b60008219821115611e8857611e88611e5f565b500190565b6000600019821415611ea157611ea1611e5f565b5060010190565b634e487b7160e01b600052603260045260246000fd5b602080825260139082015272556e617574686f72697a656420456e7469747960681b604082015260600190565b600181811c90821680611eff57607f821691505b60208210811415611f2057634e487b7160e01b600052602260045260246000fd5b50919050565b600082821015611f3857611f38611e5f565b500390565b6000816000190483118215151615611f5757611f57611e5f565b500290565b600082611f7957634e487b7160e01b600052601260045260246000fd5b50049056feaee8e5d3bbb2f71a951b5632cee20f7ac487b9f8ab4f66a236f7694b13af7c6aa264697066735822122077fd31a6d7428910092aa7f6c43cc35f9c3cdd6eb651e506ea9a1efaaa470dd764736f6c634300080b0033","opcodes":"PUSH1 0x80 PUSH1 0x40 MSTORE CALLVALUE DUP1 ISZERO PUSH2 0x10 JUMPI PUSH1 0x0 DUP1 REVERT JUMPDEST POP PUSH1 0x40 MLOAD PUSH2 0x2045 CODESIZE SUB DUP1 PUSH2 0x2045 DUP4 CODECOPY DUP2 ADD PUSH1 0x40 DUP2 SWAP1 MSTORE PUSH2 0x2F SWAP2 PUSH2 0x49 JUMP JUMPDEST PUSH1 0x0 DUP1 SLOAD PUSH1 0x1 PUSH1 0x1 PUSH1 0xA0 SHL SUB NOT AND CALLER OR SWAP1 SSTORE PUSH1 0x1 SSTORE PUSH2 0x62 JUMP JUMPDEST PUSH1 0x0 PUSH1 0x20 DUP3 DUP5 SUB SLT ISZERO PUSH2 0x5B JUMPI PUSH1 0x0 DUP1 REVERT JUMPDEST POP MLOAD SWAP2 SWAP1 POP JUMP JUMPDEST PUSH2 0x1FD4 DUP1 PUSH2 0x71 PUSH1 0x0 CODECOPY PUSH1 0x0 RETURN INVALID PUSH1 0x80 PUSH1 0x40 MSTORE PUSH1 0x4 CALLDATASIZE LT PUSH2 0xE8 JUMPI PUSH1 0x0 CALLDATALOAD PUSH1 0xE0 SHR DUP1 PUSH4 0x9F39A194 GT PUSH2 0x8A JUMPI DUP1 PUSH4 0xD24CD3EC GT PUSH2 0x59 JUMPI DUP1 PUSH4 0xD24CD3EC EQ PUSH2 0x286 JUMPI DUP1 PUSH4 0xD80528AE EQ PUSH2 0x29C JUMPI DUP1 PUSH4 0xDCC60128 EQ PUSH2 0x2D6 JUMPI DUP1 PUSH4 0xF0F3F2C8 EQ PUSH2 0x2F8 JUMPI PUSH1 0x0 DUP1 REVERT JUMPDEST DUP1 PUSH4 0x9F39A194 EQ PUSH2 0x210 JUMPI DUP1 PUSH4 0xB531DCBA EQ PUSH2 0x223 JUMPI DUP1 PUSH4 0xB69EF8A8 EQ PUSH2 0x243 JUMPI DUP1 PUSH4 0xC9168B72 EQ PUSH2 0x259 JUMPI PUSH1 0x0 DUP1 REVERT JUMPDEST DUP1 PUSH4 0x4CD0CB28 GT PUSH2 0xC6 JUMPI DUP1 PUSH4 0x4CD0CB28 EQ PUSH2 0x168 JUMPI DUP1 PUSH4 0x8593054B EQ PUSH2 0x188 JUMPI DUP1 PUSH4 0x8B9B3FD7 EQ PUSH2 0x1B8 JUMPI DUP1 PUSH4 0x8DA5CB5B EQ PUSH2 0x1D8 JUMPI PUSH1 0x0 DUP1 REVERT JUMPDEST DUP1 PUSH4 0x1CA73896 EQ PUSH2 0xED JUMPI DUP1 PUSH4 0x36FBAD26 EQ PUSH2 0x122 JUMPI DUP1 PUSH4 0x3E45C8AF EQ PUSH2 0x146 JUMPI JUMPDEST PUSH1 0x0 DUP1 REVERT JUMPDEST CALLVALUE DUP1 ISZERO PUSH2 0xF9 JUMPI PUSH1 0x0 DUP1 REVERT JUMPDEST POP PUSH2 0x10D PUSH2 0x108 CALLDATASIZE PUSH1 0x4 PUSH2 0x1AFB JUMP JUMPDEST PUSH2 0x325 JUMP JUMPDEST PUSH1 0x40 MLOAD SWAP1 ISZERO ISZERO DUP2 MSTORE PUSH1 0x20 ADD JUMPDEST PUSH1 0x40 MLOAD DUP1 SWAP2 SUB SWAP1 RETURN JUMPDEST CALLVALUE DUP1 ISZERO PUSH2 0x12E JUMPI PUSH1 0x0 DUP1 REVERT JUMPDEST POP PUSH2 0x138 PUSH1 0x2 SLOAD DUP2 JUMP JUMPDEST PUSH1 0x40 MLOAD SWAP1 DUP2 MSTORE PUSH1 0x20 ADD PUSH2 0x119 JUMP JUMPDEST CALLVALUE DUP1 ISZERO PUSH2 0x152 JUMPI PUSH1 0x0 DUP1 REVERT JUMPDEST POP PUSH2 0x166 PUSH2 0x161 CALLDATASIZE PUSH1 0x4 PUSH2 0x1B8B JUMP JUMPDEST PUSH2 0x772 JUMP JUMPDEST STOP JUMPDEST CALLVALUE DUP1 ISZERO PUSH2 0x174 JUMPI PUSH1 0x0 DUP1 REVERT JUMPDEST POP PUSH2 0x10D PUSH2 0x183 CALLDATASIZE PUSH1 0x4 PUSH2 0x1B8B JUMP JUMPDEST PUSH2 0x7C7 JUMP JUMPDEST CALLVALUE DUP1 ISZERO PUSH2 0x194 JUMPI PUSH1 0x0 DUP1 REVERT JUMPDEST POP PUSH2 0x10D PUSH2 0x1A3 CALLDATASIZE PUSH1 0x4 PUSH2 0x1B8B JUMP JUMPDEST PUSH1 0xA PUSH1 0x20 MSTORE PUSH1 0x0 SWAP1 DUP2 MSTORE PUSH1 0x40 SWAP1 KECCAK256 SLOAD PUSH1 0xFF AND DUP2 JUMP JUMPDEST CALLVALUE DUP1 ISZERO PUSH2 0x1C4 JUMPI PUSH1 0x0 DUP1 REVERT JUMPDEST POP PUSH2 0x10D PUSH2 0x1D3 CALLDATASIZE PUSH1 0x4 PUSH2 0x1BA4 JUMP JUMPDEST PUSH2 0x943 JUMP JUMPDEST CALLVALUE DUP1 ISZERO PUSH2 0x1E4 JUMPI PUSH1 0x0 DUP1 REVERT JUMPDEST POP PUSH1 0x0 SLOAD PUSH2 0x1F8 SWAP1 PUSH1 0x1 PUSH1 0x1 PUSH1 0xA0 SHL SUB AND DUP2 JUMP JUMPDEST PUSH1 0x40 MLOAD PUSH1 0x1 PUSH1 0x1 PUSH1 0xA0 SHL SUB SWAP1 SWAP2 AND DUP2 MSTORE PUSH1 0x20 ADD PUSH2 0x119 JUMP JUMPDEST PUSH2 0x10D PUSH2 0x21E CALLDATASIZE PUSH1 0x4 PUSH2 0x1B8B JUMP JUMPDEST PUSH2 0xB7F JUMP JUMPDEST CALLVALUE DUP1 ISZERO PUSH2 0x22F JUMPI PUSH1 0x0 DUP1 REVERT JUMPDEST POP PUSH2 0x10D PUSH2 0x23E CALLDATASIZE PUSH1 0x4 PUSH2 0x1B8B JUMP JUMPDEST PUSH2 0xF11 JUMP JUMPDEST CALLVALUE DUP1 ISZERO PUSH2 0x24F JUMPI PUSH1 0x0 DUP1 REVERT JUMPDEST POP PUSH2 0x138 PUSH1 0x3 SLOAD DUP2 JUMP JUMPDEST CALLVALUE DUP1 ISZERO PUSH2 0x265 JUMPI PUSH1 0x0 DUP1 REVERT JUMPDEST POP PUSH2 0x279 PUSH2 0x274 CALLDATASIZE PUSH1 0x4 PUSH2 0x1B8B JUMP JUMPDEST PUSH2 0x1000 JUMP JUMPDEST PUSH1 0x40 MLOAD PUSH2 0x119 SWAP2 SWAP1 PUSH2 0x1C36 JUMP JUMPDEST CALLVALUE DUP1 ISZERO PUSH2 0x292 JUMPI PUSH1 0x0 DUP1 REVERT JUMPDEST POP PUSH2 0x138 PUSH1 0x1 SLOAD DUP2 JUMP JUMPDEST CALLVALUE DUP1 ISZERO PUSH2 0x2A8 JUMPI PUSH1 0x0 DUP1 REVERT JUMPDEST POP PUSH1 0x4 SLOAD PUSH1 0x5 SLOAD PUSH1 0x6 SLOAD PUSH2 0x2BB SWAP3 SWAP2 SWAP1 DUP4 JUMP JUMPDEST PUSH1 0x40 DUP1 MLOAD SWAP4 DUP5 MSTORE PUSH1 0x20 DUP5 ADD SWAP3 SWAP1 SWAP3 MSTORE SWAP1 DUP3 ADD MSTORE PUSH1 0x60 ADD PUSH2 0x119 JUMP JUMPDEST CALLVALUE DUP1 ISZERO PUSH2 0x2E2 JUMPI PUSH1 0x0 DUP1 REVERT JUMPDEST POP PUSH2 0x2EB PUSH2 0x10A2 JUMP JUMPDEST PUSH1 0x40 MLOAD PUSH2 0x119 SWAP2 SWAP1 PUSH2 0x1DE3 JUMP JUMPDEST CALLVALUE DUP1 ISZERO PUSH2 0x304 JUMPI PUSH1 0x0 DUP1 REVERT JUMPDEST POP PUSH2 0x318 PUSH2 0x313 CALLDATASIZE PUSH1 0x4 PUSH2 0x1B8B JUMP JUMPDEST PUSH2 0x1333 JUMP JUMPDEST PUSH1 0x40 MLOAD PUSH2 0x119 SWAP2 SWAP1 PUSH2 0x1E45 JUMP JUMPDEST PUSH1 0x0 DUP1 DUP6 MLOAD GT PUSH2 0x374 JUMPI PUSH1 0x40 MLOAD PUSH3 0x461BCD PUSH1 0xE5 SHL DUP2 MSTORE PUSH1 0x20 PUSH1 0x4 DUP3 ADD MSTORE PUSH1 0x15 PUSH1 0x24 DUP3 ADD MSTORE PUSH21 0x5469746C652063616E6E6F7420626520656D707479 PUSH1 0x58 SHL PUSH1 0x44 DUP3 ADD MSTORE PUSH1 0x64 ADD JUMPDEST PUSH1 0x40 MLOAD DUP1 SWAP2 SUB SWAP1 REVERT JUMPDEST PUSH1 0x0 DUP5 MLOAD GT PUSH2 0x3C5 JUMPI PUSH1 0x40 MLOAD PUSH3 0x461BCD PUSH1 0xE5 SHL DUP2 MSTORE PUSH1 0x20 PUSH1 0x4 DUP3 ADD MSTORE PUSH1 0x1B PUSH1 0x24 DUP3 ADD MSTORE PUSH32 0x4465736372697074696F6E2063616E6E6F7420626520656D7074790000000000 PUSH1 0x44 DUP3 ADD MSTORE PUSH1 0x64 ADD PUSH2 0x36B JUMP JUMPDEST PUSH1 0x0 DUP4 MLOAD GT PUSH2 0x411 JUMPI PUSH1 0x40 MLOAD PUSH3 0x461BCD PUSH1 0xE5 SHL DUP2 MSTORE PUSH1 0x20 PUSH1 0x4 DUP3 ADD MSTORE PUSH1 0x18 PUSH1 0x24 DUP3 ADD MSTORE PUSH24 0x496D61676555524C2063616E6E6F7420626520656D707479 PUSH1 0x40 SHL PUSH1 0x44 DUP3 ADD MSTORE PUSH1 0x64 ADD PUSH2 0x36B JUMP JUMPDEST PUSH1 0x0 DUP3 GT PUSH2 0x457 JUMPI PUSH1 0x40 MLOAD PUSH3 0x461BCD PUSH1 0xE5 SHL DUP2 MSTORE PUSH1 0x20 PUSH1 0x4 DUP3 ADD MSTORE PUSH1 0x13 PUSH1 0x24 DUP3 ADD MSTORE PUSH19 0x436F73742063616E6E6F74206265207A65726F PUSH1 0x68 SHL PUSH1 0x44 DUP3 ADD MSTORE PUSH1 0x64 ADD PUSH2 0x36B JUMP JUMPDEST PUSH2 0x45F PUSH2 0x1953 JUMP JUMPDEST PUSH1 0x2 SLOAD DUP2 MSTORE CALLER PUSH1 0x20 DUP1 DUP4 ADD SWAP2 DUP3 MSTORE PUSH1 0x40 DUP4 ADD DUP9 DUP2 MSTORE PUSH1 0x60 DUP5 ADD DUP9 SWAP1 MSTORE PUSH1 0x80 DUP5 ADD DUP8 SWAP1 MSTORE PUSH1 0xA0 DUP5 ADD DUP7 SWAP1 MSTORE TIMESTAMP PUSH1 0xE0 DUP6 ADD MSTORE PUSH1 0x7 DUP1 SLOAD PUSH1 0x1 DUP2 ADD DUP3 SSTORE PUSH1 0x0 SWAP2 SWAP1 SWAP2 MSTORE DUP5 MLOAD PUSH32 0xA66CC928B5EDB82AF9BD49922954155AB7B0942694BEA4CE44661D9A8736C688 PUSH1 0xA SWAP1 SWAP3 MUL SWAP2 DUP3 ADD SWAP1 DUP2 SSTORE SWAP4 MLOAD PUSH32 0xA66CC928B5EDB82AF9BD49922954155AB7B0942694BEA4CE44661D9A8736C689 DUP3 ADD DUP1 SLOAD PUSH1 0x1 PUSH1 0x1 PUSH1 0xA0 SHL SUB NOT AND PUSH1 0x1 PUSH1 0x1 PUSH1 0xA0 SHL SUB SWAP1 SWAP3 AND SWAP2 SWAP1 SWAP2 OR SWAP1 SSTORE SWAP1 MLOAD DUP1 MLOAD DUP6 SWAP5 SWAP4 PUSH2 0x544 SWAP4 PUSH32 0xA66CC928B5EDB82AF9BD49922954155AB7B0942694BEA4CE44661D9A8736C68A ADD SWAP3 ADD SWAP1 PUSH2 0x19BF JUMP JUMPDEST POP PUSH1 0x60 DUP3 ADD MLOAD DUP1 MLOAD PUSH2 0x560 SWAP2 PUSH1 0x3 DUP5 ADD SWAP2 PUSH1 0x20 SWAP1 SWAP2 ADD SWAP1 PUSH2 0x19BF JUMP JUMPDEST POP PUSH1 0x80 DUP3 ADD MLOAD DUP1 MLOAD PUSH2 0x57C SWAP2 PUSH1 0x4 DUP5 ADD SWAP2 PUSH1 0x20 SWAP1 SWAP2 ADD SWAP1 PUSH2 0x19BF JUMP JUMPDEST POP PUSH1 0xA0 DUP3 ADD MLOAD PUSH1 0x5 DUP3 ADD SSTORE PUSH1 0xC0 DUP3 ADD MLOAD PUSH1 0x6 DUP3 ADD SSTORE PUSH1 0xE0 DUP3 ADD MLOAD PUSH1 0x7 DUP3 ADD SSTORE PUSH2 0x100 DUP3 ADD MLOAD PUSH1 0x8 DUP3 ADD SSTORE PUSH2 0x120 DUP3 ADD MLOAD PUSH1 0x9 DUP3 ADD DUP1 SLOAD PUSH1 0xFF NOT AND PUSH1 0x1 DUP4 PUSH1 0x4 DUP2 GT ISZERO PUSH2 0x5CA JUMPI PUSH2 0x5CA PUSH2 0x1CF2 JUMP JUMPDEST MUL OR SWAP1 SSTORE POP POP PUSH1 0x2 DUP1 SLOAD PUSH1 0x0 SWAP1 DUP2 MSTORE PUSH1 0xA PUSH1 0x20 DUP2 DUP2 MSTORE PUSH1 0x40 DUP1 DUP5 KECCAK256 DUP1 SLOAD PUSH1 0x1 PUSH1 0xFF NOT SWAP1 SWAP2 AND DUP2 OR SWAP1 SWAP2 SSTORE CALLER DUP6 MSTORE PUSH1 0x8 DUP4 MSTORE DUP2 DUP6 KECCAK256 DUP1 SLOAD DUP1 DUP4 ADD DUP3 SSTORE SWAP1 DUP7 MSTORE SWAP5 DUP4 SWAP1 KECCAK256 DUP9 MLOAD SWAP6 SWAP1 SWAP5 MUL SWAP1 SWAP4 ADD SWAP4 DUP5 SSTORE DUP7 DUP3 ADD MLOAD SWAP3 DUP5 ADD DUP1 SLOAD PUSH1 0x1 PUSH1 0x1 PUSH1 0xA0 SHL SUB NOT AND PUSH1 0x1 PUSH1 0x1 PUSH1 0xA0 SHL SUB SWAP1 SWAP5 AND SWAP4 SWAP1 SWAP4 OR SWAP1 SWAP3 SSTORE SWAP1 DUP6 ADD MLOAD DUP1 MLOAD DUP7 SWAP6 POP SWAP3 SWAP4 PUSH2 0x65A SWAP4 SWAP1 DUP6 ADD SWAP3 SWAP2 SWAP1 SWAP2 ADD SWAP1 PUSH2 0x19BF JUMP JUMPDEST POP PUSH1 0x60 DUP3 ADD MLOAD DUP1 MLOAD PUSH2 0x676 SWAP2 PUSH1 0x3 DUP5 ADD SWAP2 PUSH1 0x20 SWAP1 SWAP2 ADD SWAP1 PUSH2 0x19BF JUMP JUMPDEST POP PUSH1 0x80 DUP3 ADD MLOAD DUP1 MLOAD PUSH2 0x692 SWAP2 PUSH1 0x4 DUP5 ADD SWAP2 PUSH1 0x20 SWAP1 SWAP2 ADD SWAP1 PUSH2 0x19BF JUMP JUMPDEST POP PUSH1 0xA0 DUP3 ADD MLOAD PUSH1 0x5 DUP3 ADD SSTORE PUSH1 0xC0 DUP3 ADD MLOAD PUSH1 0x6 DUP3 ADD SSTORE PUSH1 0xE0 DUP3 ADD MLOAD PUSH1 0x7 DUP3 ADD SSTORE PUSH2 0x100 DUP3 ADD MLOAD PUSH1 0x8 DUP3 ADD SSTORE PUSH2 0x120 DUP3 ADD MLOAD PUSH1 0x9 DUP3 ADD DUP1 SLOAD PUSH1 0xFF NOT AND PUSH1 0x1 DUP4 PUSH1 0x4 DUP2 GT ISZERO PUSH2 0x6E0 JUMPI PUSH2 0x6E0 PUSH2 0x1CF2 JUMP JUMPDEST MUL OR SWAP1 SSTORE POP POP POP PUSH1 0x1 PUSH1 0x4 PUSH1 0x0 ADD PUSH1 0x0 DUP3 DUP3 SLOAD PUSH2 0x6FD SWAP2 SWAP1 PUSH2 0x1E75 JUMP JUMPDEST SWAP1 SWAP2 SSTORE POP POP PUSH1 0x2 DUP1 SLOAD CALLER SWAP2 PUSH1 0x0 DUP1 MLOAD PUSH1 0x20 PUSH2 0x1F7F DUP4 CODECOPY DUP2 MLOAD SWAP2 MSTORE SWAP2 SWAP1 PUSH1 0x0 PUSH2 0x724 DUP4 PUSH2 0x1E8D JUMP JUMPDEST SWAP1 SWAP2 SSTORE POP PUSH1 0x40 DUP1 MLOAD SWAP2 DUP3 MSTORE PUSH1 0x60 PUSH1 0x20 DUP4 ADD DUP2 SWAP1 MSTORE PUSH1 0xF SWAP1 DUP4 ADD MSTORE PUSH15 0x141493D29150D50810D49150551151 PUSH1 0x8A SHL PUSH1 0x80 DUP4 ADD MSTORE TIMESTAMP SWAP1 DUP3 ADD MSTORE PUSH1 0xA0 ADD PUSH1 0x40 MLOAD DUP1 SWAP2 SUB SWAP1 LOG2 POP PUSH1 0x1 SWAP6 SWAP5 POP POP POP POP POP JUMP JUMPDEST PUSH1 0x0 SLOAD PUSH1 0x1 PUSH1 0x1 PUSH1 0xA0 SHL SUB AND CALLER EQ PUSH2 0x7C2 JUMPI PUSH1 0x40 MLOAD PUSH3 0x461BCD PUSH1 0xE5 SHL DUP2 MSTORE PUSH1 0x20 PUSH1 0x4 DUP3 ADD MSTORE PUSH1 0x13 PUSH1 0x24 DUP3 ADD MSTORE PUSH19 0x4F776E6572207265736572766564206F6E6C79 PUSH1 0x68 SHL PUSH1 0x44 DUP3 ADD MSTORE PUSH1 0x64 ADD PUSH2 0x36B JUMP JUMPDEST PUSH1 0x1 SSTORE JUMP JUMPDEST PUSH1 0x0 DUP1 PUSH1 0x7 DUP4 DUP2 SLOAD DUP2 LT PUSH2 0x7DD JUMPI PUSH2 0x7DD PUSH2 0x1EA8 JUMP JUMPDEST PUSH1 0x0 SWAP2 DUP3 MSTORE PUSH1 0x20 SWAP1 SWAP2 KECCAK256 PUSH1 0x9 PUSH1 0xA SWAP1 SWAP3 MUL ADD ADD SLOAD PUSH1 0xFF AND PUSH1 0x4 DUP2 GT ISZERO PUSH2 0x805 JUMPI PUSH2 0x805 PUSH2 0x1CF2 JUMP JUMPDEST EQ PUSH2 0x84D JUMPI PUSH1 0x40 MLOAD PUSH3 0x461BCD PUSH1 0xE5 SHL DUP2 MSTORE PUSH1 0x20 PUSH1 0x4 DUP3 ADD MSTORE PUSH1 0x18 PUSH1 0x24 DUP3 ADD MSTORE PUSH24 0x141C9BDA9958DD081B9BC81B1BDB99D95C881BDC195B9959 PUSH1 0x42 SHL PUSH1 0x44 DUP3 ADD MSTORE PUSH1 0x64 ADD PUSH2 0x36B JUMP JUMPDEST PUSH1 0x7 DUP3 DUP2 SLOAD DUP2 LT PUSH2 0x860 JUMPI PUSH2 0x860 PUSH2 0x1EA8 JUMP JUMPDEST PUSH1 0x0 SWAP2 DUP3 MSTORE PUSH1 0x20 SWAP1 SWAP2 KECCAK256 PUSH1 0xA SWAP1 SWAP2 MUL ADD PUSH1 0x1 ADD SLOAD PUSH1 0x1 PUSH1 0x1 PUSH1 0xA0 SHL SUB AND CALLER EQ PUSH2 0x89B JUMPI PUSH1 0x40 MLOAD PUSH3 0x461BCD PUSH1 0xE5 SHL DUP2 MSTORE PUSH1 0x4 ADD PUSH2 0x36B SWAP1 PUSH2 0x1EBE JUMP JUMPDEST PUSH1 0x3 PUSH1 0x7 DUP4 DUP2 SLOAD DUP2 LT PUSH2 0x8B0 JUMPI PUSH2 0x8B0 PUSH2 0x1EA8 JUMP JUMPDEST PUSH1 0x0 SWAP2 DUP3 MSTORE PUSH1 0x20 SWAP1 SWAP2 KECCAK256 PUSH1 0x9 PUSH1 0xA SWAP1 SWAP3 MUL ADD ADD DUP1 SLOAD PUSH1 0xFF NOT AND PUSH1 0x1 DUP4 PUSH1 0x4 DUP2 GT ISZERO PUSH2 0x8DD JUMPI PUSH2 0x8DD PUSH2 0x1CF2 JUMP JUMPDEST MUL OR SWAP1 SSTORE POP PUSH2 0x8EB DUP3 PUSH2 0x1609 JUMP JUMPDEST PUSH1 0x40 DUP1 MLOAD DUP4 DUP2 MSTORE PUSH1 0x60 PUSH1 0x20 DUP3 ADD DUP2 SWAP1 MSTORE PUSH1 0xF SWAP1 DUP3 ADD MSTORE PUSH15 0x141493D29150D50811115311551151 PUSH1 0x8A SHL PUSH1 0x80 DUP3 ADD MSTORE TIMESTAMP DUP2 DUP4 ADD MSTORE SWAP1 MLOAD CALLER SWAP2 PUSH1 0x0 DUP1 MLOAD PUSH1 0x20 PUSH2 0x1F7F DUP4 CODECOPY DUP2 MLOAD SWAP2 MSTORE SWAP2 SWAP1 DUP2 SWAP1 SUB PUSH1 0xA0 ADD SWAP1 LOG2 POP PUSH1 0x1 SWAP2 SWAP1 POP JUMP JUMPDEST PUSH1 0x0 PUSH1 0x7 DUP6 DUP2 SLOAD DUP2 LT PUSH2 0x958 JUMPI PUSH2 0x958 PUSH2 0x1EA8 JUMP JUMPDEST PUSH1 0x0 SWAP2 DUP3 MSTORE PUSH1 0x20 SWAP1 SWAP2 KECCAK256 PUSH1 0xA SWAP1 SWAP2 MUL ADD PUSH1 0x1 ADD SLOAD PUSH1 0x1 PUSH1 0x1 PUSH1 0xA0 SHL SUB AND CALLER EQ PUSH2 0x993 JUMPI PUSH1 0x40 MLOAD PUSH3 0x461BCD PUSH1 0xE5 SHL DUP2 MSTORE PUSH1 0x4 ADD PUSH2 0x36B SWAP1 PUSH2 0x1EBE JUMP JUMPDEST PUSH1 0x0 DUP5 MLOAD GT PUSH2 0x9DC JUMPI PUSH1 0x40 MLOAD PUSH3 0x461BCD PUSH1 0xE5 SHL DUP2 MSTORE PUSH1 0x20 PUSH1 0x4 DUP3 ADD MSTORE PUSH1 0x15 PUSH1 0x24 DUP3 ADD MSTORE PUSH21 0x5469746C652063616E6E6F7420626520656D707479 PUSH1 0x58 SHL PUSH1 0x44 DUP3 ADD MSTORE PUSH1 0x64 ADD PUSH2 0x36B JUMP JUMPDEST PUSH1 0x0 DUP4 MLOAD GT PUSH2 0xA2D JUMPI PUSH1 0x40 MLOAD PUSH3 0x461BCD PUSH1 0xE5 SHL DUP2 MSTORE PUSH1 0x20 PUSH1 0x4 DUP3 ADD MSTORE PUSH1 0x1B PUSH1 0x24 DUP3 ADD MSTORE PUSH32 0x4465736372697074696F6E2063616E6E6F7420626520656D7074790000000000 PUSH1 0x44 DUP3 ADD MSTORE PUSH1 0x64 ADD PUSH2 0x36B JUMP JUMPDEST PUSH1 0x0 DUP3 MLOAD GT PUSH2 0xA79 JUMPI PUSH1 0x40 MLOAD PUSH3 0x461BCD PUSH1 0xE5 SHL DUP2 MSTORE PUSH1 0x20 PUSH1 0x4 DUP3 ADD MSTORE PUSH1 0x18 PUSH1 0x24 DUP3 ADD MSTORE PUSH24 0x496D61676555524C2063616E6E6F7420626520656D707479 PUSH1 0x40 SHL PUSH1 0x44 DUP3 ADD MSTORE PUSH1 0x64 ADD PUSH2 0x36B JUMP JUMPDEST DUP4 PUSH1 0x7 DUP7 DUP2 SLOAD DUP2 LT PUSH2 0xA8D JUMPI PUSH2 0xA8D PUSH2 0x1EA8 JUMP JUMPDEST SWAP1 PUSH1 0x0 MSTORE PUSH1 0x20 PUSH1 0x0 KECCAK256 SWAP1 PUSH1 0xA MUL ADD PUSH1 0x2 ADD SWAP1 DUP1 MLOAD SWAP1 PUSH1 0x20 ADD SWAP1 PUSH2 0xAB1 SWAP3 SWAP2 SWAP1 PUSH2 0x19BF JUMP JUMPDEST POP DUP3 PUSH1 0x7 DUP7 DUP2 SLOAD DUP2 LT PUSH2 0xAC6 JUMPI PUSH2 0xAC6 PUSH2 0x1EA8 JUMP JUMPDEST SWAP1 PUSH1 0x0 MSTORE PUSH1 0x20 PUSH1 0x0 KECCAK256 SWAP1 PUSH1 0xA MUL ADD PUSH1 0x3 ADD SWAP1 DUP1 MLOAD SWAP1 PUSH1 0x20 ADD SWAP1 PUSH2 0xAEA SWAP3 SWAP2 SWAP1 PUSH2 0x19BF JUMP JUMPDEST POP DUP2 PUSH1 0x7 DUP7 DUP2 SLOAD DUP2 LT PUSH2 0xAFF JUMPI PUSH2 0xAFF PUSH2 0x1EA8 JUMP JUMPDEST SWAP1 PUSH1 0x0 MSTORE PUSH1 0x20 PUSH1 0x0 KECCAK256 SWAP1 PUSH1 0xA MUL ADD PUSH1 0x4 ADD SWAP1 DUP1 MLOAD SWAP1 PUSH1 0x20 ADD SWAP1 PUSH2 0xB23 SWAP3 SWAP2 SWAP1 PUSH2 0x19BF JUMP JUMPDEST POP PUSH1 0x40 DUP1 MLOAD DUP7 DUP2 MSTORE PUSH1 0x60 PUSH1 0x20 DUP3 ADD DUP2 SWAP1 MSTORE PUSH1 0xF SWAP1 DUP3 ADD MSTORE PUSH15 0x141493D29150D50815541110551151 PUSH1 0x8A SHL PUSH1 0x80 DUP3 ADD MSTORE TIMESTAMP DUP2 DUP4 ADD MSTORE SWAP1 MLOAD CALLER SWAP2 PUSH1 0x0 DUP1 MLOAD PUSH1 0x20 PUSH2 0x1F7F DUP4 CODECOPY DUP2 MLOAD SWAP2 MSTORE SWAP2 SWAP1 DUP2 SWAP1 SUB PUSH1 0xA0 ADD SWAP1 LOG2 POP PUSH1 0x1 SWAP5 SWAP4 POP POP POP POP JUMP JUMPDEST PUSH1 0x0 DUP1 CALLVALUE GT PUSH2 0xBD0 JUMPI PUSH1 0x40 MLOAD PUSH3 0x461BCD PUSH1 0xE5 SHL DUP2 MSTORE PUSH1 0x20 PUSH1 0x4 DUP3 ADD MSTORE PUSH1 0x1F PUSH1 0x24 DUP3 ADD MSTORE PUSH32 0x4574686572206D7573742062652067726561746572207468616E207A65726F00 PUSH1 0x44 DUP3 ADD MSTORE PUSH1 0x64 ADD PUSH2 0x36B JUMP JUMPDEST PUSH1 0x0 DUP3 DUP2 MSTORE PUSH1 0xA PUSH1 0x20 MSTORE PUSH1 0x40 SWAP1 KECCAK256 SLOAD PUSH1 0xFF AND PUSH2 0xC22 JUMPI PUSH1 0x40 MLOAD PUSH3 0x461BCD PUSH1 0xE5 SHL DUP2 MSTORE PUSH1 0x20 PUSH1 0x4 DUP3 ADD MSTORE PUSH1 0x11 PUSH1 0x24 DUP3 ADD MSTORE PUSH17 0x141C9BDA9958DD081B9BDD08199BDD5B99 PUSH1 0x7A SHL PUSH1 0x44 DUP3 ADD MSTORE PUSH1 0x64 ADD PUSH2 0x36B JUMP JUMPDEST PUSH1 0x0 PUSH1 0x7 DUP4 DUP2 SLOAD DUP2 LT PUSH2 0xC37 JUMPI PUSH2 0xC37 PUSH2 0x1EA8 JUMP JUMPDEST PUSH1 0x0 SWAP2 DUP3 MSTORE PUSH1 0x20 SWAP1 SWAP2 KECCAK256 PUSH1 0x9 PUSH1 0xA SWAP1 SWAP3 MUL ADD ADD SLOAD PUSH1 0xFF AND PUSH1 0x4 DUP2 GT ISZERO PUSH2 0xC5F JUMPI PUSH2 0xC5F PUSH2 0x1CF2 JUMP JUMPDEST EQ PUSH2 0xCA7 JUMPI PUSH1 0x40 MLOAD PUSH3 0x461BCD PUSH1 0xE5 SHL DUP2 MSTORE PUSH1 0x20 PUSH1 0x4 DUP3 ADD MSTORE PUSH1 0x18 PUSH1 0x24 DUP3 ADD MSTORE PUSH24 0x141C9BDA9958DD081B9BC81B1BDB99D95C881BDC195B9959 PUSH1 0x42 SHL PUSH1 0x44 DUP3 ADD MSTORE PUSH1 0x64 ADD PUSH2 0x36B JUMP JUMPDEST PUSH1 0x1 PUSH1 0x4 PUSH1 0x1 ADD PUSH1 0x0 DUP3 DUP3 SLOAD PUSH2 0xCBD SWAP2 SWAP1 PUSH2 0x1E75 JUMP JUMPDEST SWAP1 SWAP2 SSTORE POP POP PUSH1 0x6 DUP1 SLOAD CALLVALUE SWAP2 SWAP1 PUSH1 0x0 SWAP1 PUSH2 0xCD7 SWAP1 DUP5 SWAP1 PUSH2 0x1E75 JUMP JUMPDEST SWAP3 POP POP DUP2 SWAP1 SSTORE POP CALLVALUE PUSH1 0x7 DUP4 DUP2 SLOAD DUP2 LT PUSH2 0xCF2 JUMPI PUSH2 0xCF2 PUSH2 0x1EA8 JUMP JUMPDEST SWAP1 PUSH1 0x0 MSTORE PUSH1 0x20 PUSH1 0x0 KECCAK256 SWAP1 PUSH1 0xA MUL ADD PUSH1 0x6 ADD PUSH1 0x0 DUP3 DUP3 SLOAD PUSH2 0xD12 SWAP2 SWAP1 PUSH2 0x1E75 JUMP JUMPDEST SWAP3 POP POP DUP2 SWAP1 SSTORE POP PUSH1 0x1 PUSH1 0x7 DUP4 DUP2 SLOAD DUP2 LT PUSH2 0xD2E JUMPI PUSH2 0xD2E PUSH2 0x1EA8 JUMP JUMPDEST SWAP1 PUSH1 0x0 MSTORE PUSH1 0x20 PUSH1 0x0 KECCAK256 SWAP1 PUSH1 0xA MUL ADD PUSH1 0x8 ADD PUSH1 0x0 DUP3 DUP3 SLOAD PUSH2 0xD4E SWAP2 SWAP1 PUSH2 0x1E75 JUMP JUMPDEST SWAP1 SWAP2 SSTORE POP POP PUSH1 0x0 DUP3 DUP2 MSTORE PUSH1 0x9 PUSH1 0x20 SWAP1 DUP2 MSTORE PUSH1 0x40 DUP1 DUP4 KECCAK256 DUP2 MLOAD PUSH1 0x80 DUP1 DUP3 ADD DUP5 MSTORE CALLER DUP1 DUP4 MSTORE CALLVALUE DUP4 DUP8 ADD SWAP1 DUP2 MSTORE TIMESTAMP DUP5 DUP8 ADD DUP2 DUP2 MSTORE PUSH1 0x60 DUP1 DUP8 ADD DUP12 DUP2 MSTORE DUP9 SLOAD PUSH1 0x1 DUP1 DUP3 ADD DUP12 SSTORE SWAP10 DUP14 MSTORE SWAP12 DUP12 SWAP1 KECCAK256 SWAP8 MLOAD PUSH1 0x4 SWAP1 SWAP13 MUL SWAP1 SWAP8 ADD DUP1 SLOAD PUSH1 0x1 PUSH1 0x1 PUSH1 0xA0 SHL SUB NOT AND PUSH1 0x1 PUSH1 0x1 PUSH1 0xA0 SHL SUB SWAP1 SWAP13 AND SWAP12 SWAP1 SWAP12 OR DUP12 SSTORE SWAP3 MLOAD SWAP7 DUP11 ADD SWAP7 SWAP1 SWAP7 SSTORE SWAP5 MLOAD PUSH1 0x2 DUP10 ADD SSTORE SWAP3 MLOAD PUSH1 0x3 SWAP1 SWAP8 ADD DUP1 SLOAD PUSH1 0xFF NOT AND SWAP8 ISZERO ISZERO SWAP8 SWAP1 SWAP8 OR SWAP1 SWAP7 SSTORE DUP4 MLOAD DUP9 DUP2 MSTORE SWAP5 DUP6 ADD DUP3 SWAP1 MSTORE PUSH1 0xE SWAP2 DUP6 ADD SWAP2 SWAP1 SWAP2 MSTORE PUSH14 0x141493D29150D508109050D2D151 PUSH1 0x92 SHL SWAP1 DUP5 ADD MSTORE SWAP1 DUP3 ADD MSTORE PUSH1 0x0 DUP1 MLOAD PUSH1 0x20 PUSH2 0x1F7F DUP4 CODECOPY DUP2 MLOAD SWAP2 MSTORE SWAP1 PUSH1 0xA0 ADD PUSH1 0x40 MLOAD DUP1 SWAP2 SUB SWAP1 LOG2 PUSH1 0x7 DUP3 DUP2 SLOAD DUP2 LT PUSH2 0xE41 JUMPI PUSH2 0xE41 PUSH2 0x1EA8 JUMP JUMPDEST SWAP1 PUSH1 0x0 MSTORE PUSH1 0x20 PUSH1 0x0 KECCAK256 SWAP1 PUSH1 0xA MUL ADD PUSH1 0x5 ADD SLOAD PUSH1 0x7 DUP4 DUP2 SLOAD DUP2 LT PUSH2 0xE66 JUMPI PUSH2 0xE66 PUSH2 0x1EA8 JUMP JUMPDEST SWAP1 PUSH1 0x0 MSTORE PUSH1 0x20 PUSH1 0x0 KECCAK256 SWAP1 PUSH1 0xA MUL ADD PUSH1 0x6 ADD SLOAD LT PUSH2 0xF09 JUMPI PUSH1 0x1 PUSH1 0x7 DUP4 DUP2 SLOAD DUP2 LT PUSH2 0xE92 JUMPI PUSH2 0xE92 PUSH2 0x1EA8 JUMP JUMPDEST PUSH1 0x0 SWAP2 DUP3 MSTORE PUSH1 0x20 SWAP1 SWAP2 KECCAK256 PUSH1 0x9 PUSH1 0xA SWAP1 SWAP3 MUL ADD ADD DUP1 SLOAD PUSH1 0xFF NOT AND PUSH1 0x1 DUP4 PUSH1 0x4 DUP2 GT ISZERO PUSH2 0xEBF JUMPI PUSH2 0xEBF PUSH2 0x1CF2 JUMP JUMPDEST MUL OR SWAP1 SSTORE POP PUSH1 0x7 DUP3 DUP2 SLOAD DUP2 LT PUSH2 0xED7 JUMPI PUSH2 0xED7 PUSH2 0x1EA8 JUMP JUMPDEST SWAP1 PUSH1 0x0 MSTORE PUSH1 0x20 PUSH1 0x0 KECCAK256 SWAP1 PUSH1 0xA MUL ADD PUSH1 0x6 ADD SLOAD PUSH1 0x3 PUSH1 0x0 DUP3 DUP3 SLOAD PUSH2 0xEFA SWAP2 SWAP1 PUSH2 0x1E75 JUMP JUMPDEST SWAP1 SWAP2 SSTORE POP PUSH2 0xF09 SWAP1 POP DUP3 PUSH2 0x1777 JUMP JUMPDEST POP PUSH1 0x1 SWAP2 SWAP1 POP JUMP JUMPDEST PUSH1 0x0 PUSH1 0x1 PUSH1 0x7 DUP4 DUP2 SLOAD DUP2 LT PUSH2 0xF28 JUMPI PUSH2 0xF28 PUSH2 0x1EA8 JUMP JUMPDEST PUSH1 0x0 SWAP2 DUP3 MSTORE PUSH1 0x20 SWAP1 SWAP2 KECCAK256 PUSH1 0x9 PUSH1 0xA SWAP1 SWAP3 MUL ADD ADD SLOAD PUSH1 0xFF AND PUSH1 0x4 DUP2 GT ISZERO PUSH2 0xF50 JUMPI PUSH2 0xF50 PUSH2 0x1CF2 JUMP JUMPDEST EQ PUSH2 0xF94 JUMPI PUSH1 0x40 MLOAD PUSH3 0x461BCD PUSH1 0xE5 SHL DUP2 MSTORE PUSH1 0x20 PUSH1 0x4 DUP3 ADD MSTORE PUSH1 0x14 PUSH1 0x24 DUP3 ADD MSTORE PUSH20 0x141C9BDA9958DD081B9BDD081054141493D59151 PUSH1 0x62 SHL PUSH1 0x44 DUP3 ADD MSTORE PUSH1 0x64 ADD PUSH2 0x36B JUMP JUMPDEST PUSH1 0x7 DUP3 DUP2 SLOAD DUP2 LT PUSH2 0xFA7 JUMPI PUSH2 0xFA7 PUSH2 0x1EA8 JUMP JUMPDEST PUSH1 0x0 SWAP2 DUP3 MSTORE PUSH1 0x20 SWAP1 SWAP2 KECCAK256 PUSH1 0xA SWAP1 SWAP2 MUL ADD PUSH1 0x1 ADD SLOAD PUSH1 0x1 PUSH1 0x1 PUSH1 0xA0 SHL SUB AND CALLER EQ DUP1 PUSH2 0xFDB JUMPI POP PUSH1 0x0 SLOAD PUSH1 0x1 PUSH1 0x1 PUSH1 0xA0 SHL SUB AND CALLER EQ JUMPDEST PUSH2 0xFF7 JUMPI PUSH1 0x40 MLOAD PUSH3 0x461BCD PUSH1 0xE5 SHL DUP2 MSTORE PUSH1 0x4 ADD PUSH2 0x36B SWAP1 PUSH2 0x1EBE JUMP JUMPDEST PUSH2 0xF09 DUP3 PUSH2 0x1777 JUMP JUMPDEST PUSH1 0x60 PUSH1 0x9 PUSH1 0x0 DUP4 DUP2 MSTORE PUSH1 0x20 ADD SWAP1 DUP2 MSTORE PUSH1 0x20 ADD PUSH1 0x0 KECCAK256 DUP1 SLOAD DUP1 PUSH1 0x20 MUL PUSH1 0x20 ADD PUSH1 0x40 MLOAD SWAP1 DUP2 ADD PUSH1 0x40 MSTORE DUP1 SWAP3 SWAP2 SWAP1 DUP2 DUP2 MSTORE PUSH1 0x20 ADD PUSH1 0x0 SWAP1 JUMPDEST DUP3 DUP3 LT ISZERO PUSH2 0x1097 JUMPI PUSH1 0x0 DUP5 DUP2 MSTORE PUSH1 0x20 SWAP1 DUP2 SWAP1 KECCAK256 PUSH1 0x40 DUP1 MLOAD PUSH1 0x80 DUP2 ADD DUP3 MSTORE PUSH1 0x4 DUP7 MUL SWAP1 SWAP3 ADD DUP1 SLOAD PUSH1 0x1 PUSH1 0x1 PUSH1 0xA0 SHL SUB AND DUP4 MSTORE PUSH1 0x1 DUP1 DUP3 ADD SLOAD DUP5 DUP7 ADD MSTORE PUSH1 0x2 DUP3 ADD SLOAD SWAP3 DUP5 ADD SWAP3 SWAP1 SWAP3 MSTORE PUSH1 0x3 ADD SLOAD PUSH1 0xFF AND ISZERO ISZERO PUSH1 0x60 DUP4 ADD MSTORE SWAP1 DUP4 MSTORE SWAP1 SWAP3 ADD SWAP2 ADD PUSH2 0x1035 JUMP JUMPDEST POP POP POP POP SWAP1 POP SWAP2 SWAP1 POP JUMP JUMPDEST PUSH1 0x60 PUSH1 0x7 DUP1 SLOAD DUP1 PUSH1 0x20 MUL PUSH1 0x20 ADD PUSH1 0x40 MLOAD SWAP1 DUP2 ADD PUSH1 0x40 MSTORE DUP1 SWAP3 SWAP2 SWAP1 DUP2 DUP2 MSTORE PUSH1 0x20 ADD PUSH1 0x0 SWAP1 JUMPDEST DUP3 DUP3 LT ISZERO PUSH2 0x132A JUMPI PUSH1 0x0 DUP5 DUP2 MSTORE PUSH1 0x20 SWAP1 DUP2 SWAP1 KECCAK256 PUSH1 0x40 DUP1 MLOAD PUSH2 0x140 DUP2 ADD DUP3 MSTORE PUSH1 0xA DUP7 MUL SWAP1 SWAP3 ADD DUP1 SLOAD DUP4 MSTORE PUSH1 0x1 DUP2 ADD SLOAD PUSH1 0x1 PUSH1 0x1 PUSH1 0xA0 SHL SUB AND SWAP4 DUP4 ADD SWAP4 SWAP1 SWAP4 MSTORE PUSH1 0x2 DUP4 ADD DUP1 SLOAD SWAP3 SWAP4 SWAP3 SWAP2 DUP5 ADD SWAP2 PUSH2 0x111A SWAP1 PUSH2 0x1EEB JUMP JUMPDEST DUP1 PUSH1 0x1F ADD PUSH1 0x20 DUP1 SWAP2 DIV MUL PUSH1 0x20 ADD PUSH1 0x40 MLOAD SWAP1 DUP2 ADD PUSH1 0x40 MSTORE DUP1 SWAP3 SWAP2 SWAP1 DUP2 DUP2 MSTORE PUSH1 0x20 ADD DUP3 DUP1 SLOAD PUSH2 0x1146 SWAP1 PUSH2 0x1EEB JUMP JUMPDEST DUP1 ISZERO PUSH2 0x1193 JUMPI DUP1 PUSH1 0x1F LT PUSH2 0x1168 JUMPI PUSH2 0x100 DUP1 DUP4 SLOAD DIV MUL DUP4 MSTORE SWAP2 PUSH1 0x20 ADD SWAP2 PUSH2 0x1193 JUMP JUMPDEST DUP3 ADD SWAP2 SWAP1 PUSH1 0x0 MSTORE PUSH1 0x20 PUSH1 0x0 KECCAK256 SWAP1 JUMPDEST DUP2 SLOAD DUP2 MSTORE SWAP1 PUSH1 0x1 ADD SWAP1 PUSH1 0x20 ADD DUP1 DUP4 GT PUSH2 0x1176 JUMPI DUP3 SWAP1 SUB PUSH1 0x1F AND DUP3 ADD SWAP2 JUMPDEST POP POP POP POP POP DUP2 MSTORE PUSH1 0x20 ADD PUSH1 0x3 DUP3 ADD DUP1 SLOAD PUSH2 0x11AC SWAP1 PUSH2 0x1EEB JUMP JUMPDEST DUP1 PUSH1 0x1F ADD PUSH1 0x20 DUP1 SWAP2 DIV MUL PUSH1 0x20 ADD PUSH1 0x40 MLOAD SWAP1 DUP2 ADD PUSH1 0x40 MSTORE DUP1 SWAP3 SWAP2 SWAP1 DUP2 DUP2 MSTORE PUSH1 0x20 ADD DUP3 DUP1 SLOAD PUSH2 0x11D8 SWAP1 PUSH2 0x1EEB JUMP JUMPDEST DUP1 ISZERO PUSH2 0x1225 JUMPI DUP1 PUSH1 0x1F LT PUSH2 0x11FA JUMPI PUSH2 0x100 DUP1 DUP4 SLOAD DIV MUL DUP4 MSTORE SWAP2 PUSH1 0x20 ADD SWAP2 PUSH2 0x1225 JUMP JUMPDEST DUP3 ADD SWAP2 SWAP1 PUSH1 0x0 MSTORE PUSH1 0x20 PUSH1 0x0 KECCAK256 SWAP1 JUMPDEST DUP2 SLOAD DUP2 MSTORE SWAP1 PUSH1 0x1 ADD SWAP1 PUSH1 0x20 ADD DUP1 DUP4 GT PUSH2 0x1208 JUMPI DUP3 SWAP1 SUB PUSH1 0x1F AND DUP3 ADD SWAP2 JUMPDEST POP POP POP POP POP DUP2 MSTORE PUSH1 0x20 ADD PUSH1 0x4 DUP3 ADD DUP1 SLOAD PUSH2 0x123E SWAP1 PUSH2 0x1EEB JUMP JUMPDEST DUP1 PUSH1 0x1F ADD PUSH1 0x20 DUP1 SWAP2 DIV MUL PUSH1 0x20 ADD PUSH1 0x40 MLOAD SWAP1 DUP2 ADD PUSH1 0x40 MSTORE DUP1 SWAP3 SWAP2 SWAP1 DUP2 DUP2 MSTORE PUSH1 0x20 ADD DUP3 DUP1 SLOAD PUSH2 0x126A SWAP1 PUSH2 0x1EEB JUMP JUMPDEST DUP1 ISZERO PUSH2 0x12B7 JUMPI DUP1 PUSH1 0x1F LT PUSH2 0x128C JUMPI PUSH2 0x100 DUP1 DUP4 SLOAD DIV MUL DUP4 MSTORE SWAP2 PUSH1 0x20 ADD SWAP2 PUSH2 0x12B7 JUMP JUMPDEST DUP3 ADD SWAP2 SWAP1 PUSH1 0x0 MSTORE PUSH1 0x20 PUSH1 0x0 KECCAK256 SWAP1 JUMPDEST DUP2 SLOAD DUP2 MSTORE SWAP1 PUSH1 0x1 ADD SWAP1 PUSH1 0x20 ADD DUP1 DUP4 GT PUSH2 0x129A JUMPI DUP3 SWAP1 SUB PUSH1 0x1F AND DUP3 ADD SWAP2 JUMPDEST POP POP POP SWAP2 DUP4 MSTORE POP POP PUSH1 0x5 DUP3 ADD SLOAD PUSH1 0x20 DUP3 ADD MSTORE PUSH1 0x6 DUP3 ADD SLOAD PUSH1 0x40 DUP3 ADD MSTORE PUSH1 0x7 DUP3 ADD SLOAD PUSH1 0x60 DUP3 ADD MSTORE PUSH1 0x8 DUP3 ADD SLOAD PUSH1 0x80 DUP3 ADD MSTORE PUSH1 0x9 DUP3 ADD SLOAD PUSH1 0xA0 SWAP1 SWAP2 ADD SWAP1 PUSH1 0xFF AND PUSH1 0x4 DUP2 GT ISZERO PUSH2 0x1306 JUMPI PUSH2 0x1306 PUSH2 0x1CF2 JUMP JUMPDEST PUSH1 0x4 DUP2 GT ISZERO PUSH2 0x1317 JUMPI PUSH2 0x1317 PUSH2 0x1CF2 JUMP JUMPDEST DUP2 MSTORE POP POP DUP2 MSTORE PUSH1 0x20 ADD SWAP1 PUSH1 0x1 ADD SWAP1 PUSH2 0x10C6 JUMP JUMPDEST POP POP POP POP SWAP1 POP SWAP1 JUMP JUMPDEST PUSH2 0x133B PUSH2 0x1953 JUMP JUMPDEST PUSH1 0x0 DUP3 DUP2 MSTORE PUSH1 0xA PUSH1 0x20 MSTORE PUSH1 0x40 SWAP1 KECCAK256 SLOAD PUSH1 0xFF AND PUSH2 0x138D JUMPI PUSH1 0x40 MLOAD PUSH3 0x461BCD PUSH1 0xE5 SHL DUP2 MSTORE PUSH1 0x20 PUSH1 0x4 DUP3 ADD MSTORE PUSH1 0x11 PUSH1 0x24 DUP3 ADD MSTORE PUSH17 0x141C9BDA9958DD081B9BDD08199BDD5B99 PUSH1 0x7A SHL PUSH1 0x44 DUP3 ADD MSTORE PUSH1 0x64 ADD PUSH2 0x36B JUMP JUMPDEST PUSH1 0x7 DUP3 DUP2 SLOAD DUP2 LT PUSH2 0x13A0 JUMPI PUSH2 0x13A0 PUSH2 0x1EA8 JUMP JUMPDEST SWAP1 PUSH1 0x0 MSTORE PUSH1 0x20 PUSH1 0x0 KECCAK256 SWAP1 PUSH1 0xA MUL ADD PUSH1 0x40 MLOAD DUP1 PUSH2 0x140 ADD PUSH1 0x40 MSTORE SWAP1 DUP2 PUSH1 0x0 DUP3 ADD SLOAD DUP2 MSTORE PUSH1 0x20 ADD PUSH1 0x1 DUP3 ADD PUSH1 0x0 SWAP1 SLOAD SWAP1 PUSH2 0x100 EXP SWAP1 DIV PUSH1 0x1 PUSH1 0x1 PUSH1 0xA0 SHL SUB AND PUSH1 0x1 PUSH1 0x1 PUSH1 0xA0 SHL SUB AND PUSH1 0x1 PUSH1 0x1 PUSH1 0xA0 SHL SUB AND DUP2 MSTORE PUSH1 0x20 ADD PUSH1 0x2 DUP3 ADD DUP1 SLOAD PUSH2 0x1403 SWAP1 PUSH2 0x1EEB JUMP JUMPDEST DUP1 PUSH1 0x1F ADD PUSH1 0x20 DUP1 SWAP2 DIV MUL PUSH1 0x20 ADD PUSH1 0x40 MLOAD SWAP1 DUP2 ADD PUSH1 0x40 MSTORE DUP1 SWAP3 SWAP2 SWAP1 DUP2 DUP2 MSTORE PUSH1 0x20 ADD DUP3 DUP1 SLOAD PUSH2 0x142F SWAP1 PUSH2 0x1EEB JUMP JUMPDEST DUP1 ISZERO PUSH2 0x147C JUMPI DUP1 PUSH1 0x1F LT PUSH2 0x1451 JUMPI PUSH2 0x100 DUP1 DUP4 SLOAD DIV MUL DUP4 MSTORE SWAP2 PUSH1 0x20 ADD SWAP2 PUSH2 0x147C JUMP JUMPDEST DUP3 ADD SWAP2 SWAP1 PUSH1 0x0 MSTORE PUSH1 0x20 PUSH1 0x0 KECCAK256 SWAP1 JUMPDEST DUP2 SLOAD DUP2 MSTORE SWAP1 PUSH1 0x1 ADD SWAP1 PUSH1 0x20 ADD DUP1 DUP4 GT PUSH2 0x145F JUMPI DUP3 SWAP1 SUB PUSH1 0x1F AND DUP3 ADD SWAP2 JUMPDEST POP POP POP POP POP DUP2 MSTORE PUSH1 0x20 ADD PUSH1 0x3 DUP3 ADD DUP1 SLOAD PUSH2 0x1495 SWAP1 PUSH2 0x1EEB JUMP JUMPDEST DUP1 PUSH1 0x1F ADD PUSH1 0x20 DUP1 SWAP2 DIV MUL PUSH1 0x20 ADD PUSH1 0x40 MLOAD SWAP1 DUP2 ADD PUSH1 0x40 MSTORE DUP1 SWAP3 SWAP2 SWAP1 DUP2 DUP2 MSTORE PUSH1 0x20 ADD DUP3 DUP1 SLOAD PUSH2 0x14C1 SWAP1 PUSH2 0x1EEB JUMP JUMPDEST DUP1 ISZERO PUSH2 0x150E JUMPI DUP1 PUSH1 0x1F LT PUSH2 0x14E3 JUMPI PUSH2 0x100 DUP1 DUP4 SLOAD DIV MUL DUP4 MSTORE SWAP2 PUSH1 0x20 ADD SWAP2 PUSH2 0x150E JUMP JUMPDEST DUP3 ADD SWAP2 SWAP1 PUSH1 0x0 MSTORE PUSH1 0x20 PUSH1 0x0 KECCAK256 SWAP1 JUMPDEST DUP2 SLOAD DUP2 MSTORE SWAP1 PUSH1 0x1 ADD SWAP1 PUSH1 0x20 ADD DUP1 DUP4 GT PUSH2 0x14F1 JUMPI DUP3 SWAP1 SUB PUSH1 0x1F AND DUP3 ADD SWAP2 JUMPDEST POP POP POP POP POP DUP2 MSTORE PUSH1 0x20 ADD PUSH1 0x4 DUP3 ADD DUP1 SLOAD PUSH2 0x1527 SWAP1 PUSH2 0x1EEB JUMP JUMPDEST DUP1 PUSH1 0x1F ADD PUSH1 0x20 DUP1 SWAP2 DIV MUL PUSH1 0x20 ADD PUSH1 0x40 MLOAD SWAP1 DUP2 ADD PUSH1 0x40 MSTORE DUP1 SWAP3 SWAP2 SWAP1 DUP2 DUP2 MSTORE PUSH1 0x20 ADD DUP3 DUP1 SLOAD PUSH2 0x1553 SWAP1 PUSH2 0x1EEB JUMP JUMPDEST DUP1 ISZERO PUSH2 0x15A0 JUMPI DUP1 PUSH1 0x1F LT PUSH2 0x1575 JUMPI PUSH2 0x100 DUP1 DUP4 SLOAD DIV MUL DUP4 MSTORE SWAP2 PUSH1 0x20 ADD SWAP2 PUSH2 0x15A0 JUMP JUMPDEST DUP3 ADD SWAP2 SWAP1 PUSH1 0x0 MSTORE PUSH1 0x20 PUSH1 0x0 KECCAK256 SWAP1 JUMPDEST DUP2 SLOAD DUP2 MSTORE SWAP1 PUSH1 0x1 ADD SWAP1 PUSH1 0x20 ADD DUP1 DUP4 GT PUSH2 0x1583 JUMPI DUP3 SWAP1 SUB PUSH1 0x1F AND DUP3 ADD SWAP2 JUMPDEST POP POP POP SWAP2 DUP4 MSTORE POP POP PUSH1 0x5 DUP3 ADD SLOAD PUSH1 0x20 DUP3 ADD MSTORE PUSH1 0x6 DUP3 ADD SLOAD PUSH1 0x40 DUP3 ADD MSTORE PUSH1 0x7 DUP3 ADD SLOAD PUSH1 0x60 DUP3 ADD MSTORE PUSH1 0x8 DUP3 ADD SLOAD PUSH1 0x80 DUP3 ADD MSTORE PUSH1 0x9 DUP3 ADD SLOAD PUSH1 0xA0 SWAP1 SWAP2 ADD SWAP1 PUSH1 0xFF AND PUSH1 0x4 DUP2 GT ISZERO PUSH2 0x15EF JUMPI PUSH2 0x15EF PUSH2 0x1CF2 JUMP JUMPDEST PUSH1 0x4 DUP2 GT ISZERO PUSH2 0x1600 JUMPI PUSH2 0x1600 PUSH2 0x1CF2 JUMP JUMPDEST SWAP1 MSTORE POP SWAP3 SWAP2 POP POP JUMP JUMPDEST PUSH1 0x0 JUMPDEST PUSH1 0x0 DUP3 DUP2 MSTORE PUSH1 0x9 PUSH1 0x20 MSTORE PUSH1 0x40 SWAP1 KECCAK256 SLOAD DUP2 LT ISZERO PUSH2 0x1773 JUMPI PUSH1 0x0 DUP3 DUP2 MSTORE PUSH1 0x9 PUSH1 0x20 MSTORE PUSH1 0x40 DUP2 KECCAK256 DUP1 SLOAD DUP4 SWAP1 DUP2 LT PUSH2 0x1642 JUMPI PUSH2 0x1642 PUSH2 0x1EA8 JUMP JUMPDEST PUSH1 0x0 SWAP2 DUP3 MSTORE PUSH1 0x20 DUP1 DUP4 KECCAK256 PUSH1 0x4 SWAP1 SWAP3 MUL SWAP1 SWAP2 ADD SLOAD DUP6 DUP4 MSTORE PUSH1 0x9 SWAP1 SWAP2 MSTORE PUSH1 0x40 DUP3 KECCAK256 DUP1 SLOAD PUSH1 0x1 PUSH1 0x1 PUSH1 0xA0 SHL SUB SWAP1 SWAP3 AND SWAP4 POP SWAP1 DUP5 SWAP1 DUP2 LT PUSH2 0x1681 JUMPI PUSH2 0x1681 PUSH2 0x1EA8 JUMP JUMPDEST SWAP1 PUSH1 0x0 MSTORE PUSH1 0x20 PUSH1 0x0 KECCAK256 SWAP1 PUSH1 0x4 MUL ADD PUSH1 0x1 ADD SLOAD SWAP1 POP PUSH1 0x1 PUSH1 0x9 PUSH1 0x0 DUP7 DUP2 MSTORE PUSH1 0x20 ADD SWAP1 DUP2 MSTORE PUSH1 0x20 ADD PUSH1 0x0 KECCAK256 DUP5 DUP2 SLOAD DUP2 LT PUSH2 0x16BB JUMPI PUSH2 0x16BB PUSH2 0x1EA8 JUMP JUMPDEST SWAP1 PUSH1 0x0 MSTORE PUSH1 0x20 PUSH1 0x0 KECCAK256 SWAP1 PUSH1 0x4 MUL ADD PUSH1 0x3 ADD PUSH1 0x0 PUSH2 0x100 EXP DUP2 SLOAD DUP2 PUSH1 0xFF MUL NOT AND SWAP1 DUP4 ISZERO ISZERO MUL OR SWAP1 SSTORE POP TIMESTAMP PUSH1 0x9 PUSH1 0x0 DUP7 DUP2 MSTORE PUSH1 0x20 ADD SWAP1 DUP2 MSTORE PUSH1 0x20 ADD PUSH1 0x0 KECCAK256 DUP5 DUP2 SLOAD DUP2 LT PUSH2 0x1708 JUMPI PUSH2 0x1708 PUSH2 0x1EA8 JUMP JUMPDEST SWAP1 PUSH1 0x0 MSTORE PUSH1 0x20 PUSH1 0x0 KECCAK256 SWAP1 PUSH1 0x4 MUL ADD PUSH1 0x2 ADD DUP2 SWAP1 SSTORE POP PUSH2 0x1727 DUP3 DUP3 PUSH2 0x18EE JUMP JUMPDEST PUSH1 0x1 PUSH1 0x4 PUSH1 0x1 ADD PUSH1 0x0 DUP3 DUP3 SLOAD PUSH2 0x173D SWAP2 SWAP1 PUSH2 0x1F26 JUMP JUMPDEST SWAP1 SWAP2 SSTORE POP POP PUSH1 0x6 DUP1 SLOAD DUP3 SWAP2 SWAP1 PUSH1 0x0 SWAP1 PUSH2 0x1757 SWAP1 DUP5 SWAP1 PUSH2 0x1F26 JUMP JUMPDEST SWAP3 POP POP DUP2 SWAP1 SSTORE POP POP POP DUP1 DUP1 PUSH2 0x176B SWAP1 PUSH2 0x1E8D JUMP JUMPDEST SWAP2 POP POP PUSH2 0x160C JUMP JUMPDEST POP POP JUMP JUMPDEST PUSH1 0x0 PUSH1 0x7 DUP3 DUP2 SLOAD DUP2 LT PUSH2 0x178C JUMPI PUSH2 0x178C PUSH2 0x1EA8 JUMP JUMPDEST SWAP1 PUSH1 0x0 MSTORE PUSH1 0x20 PUSH1 0x0 KECCAK256 SWAP1 PUSH1 0xA MUL ADD PUSH1 0x6 ADD SLOAD SWAP1 POP PUSH1 0x0 PUSH1 0x64 PUSH1 0x1 SLOAD DUP4 PUSH2 0x17B2 SWAP2 SWAP1 PUSH2 0x1F3D JUMP JUMPDEST PUSH2 0x17BC SWAP2 SWAP1 PUSH2 0x1F5C JUMP JUMPDEST SWAP1 POP PUSH1 0x4 PUSH1 0x7 DUP5 DUP2 SLOAD DUP2 LT PUSH2 0x17D3 JUMPI PUSH2 0x17D3 PUSH2 0x1EA8 JUMP JUMPDEST PUSH1 0x0 SWAP2 DUP3 MSTORE PUSH1 0x20 SWAP1 SWAP2 KECCAK256 PUSH1 0x9 PUSH1 0xA SWAP1 SWAP3 MUL ADD ADD DUP1 SLOAD PUSH1 0xFF NOT AND PUSH1 0x1 DUP4 PUSH1 0x4 DUP2 GT ISZERO PUSH2 0x1800 JUMPI PUSH2 0x1800 PUSH2 0x1CF2 JUMP JUMPDEST MUL OR SWAP1 SSTORE POP PUSH2 0x1847 PUSH1 0x7 DUP5 DUP2 SLOAD DUP2 LT PUSH2 0x181B JUMPI PUSH2 0x181B PUSH2 0x1EA8 JUMP JUMPDEST PUSH1 0x0 SWAP2 DUP3 MSTORE PUSH1 0x20 SWAP1 SWAP2 KECCAK256 PUSH1 0x1 PUSH1 0xA SWAP1 SWAP3 MUL ADD ADD SLOAD PUSH1 0x1 PUSH1 0x1 PUSH1 0xA0 SHL SUB AND PUSH2 0x1842 DUP4 DUP6 PUSH2 0x1F26 JUMP JUMPDEST PUSH2 0x18EE JUMP JUMPDEST PUSH1 0x0 SLOAD PUSH2 0x185D SWAP1 PUSH1 0x1 PUSH1 0x1 PUSH1 0xA0 SHL SUB AND DUP3 PUSH2 0x18EE JUMP JUMPDEST PUSH1 0x7 DUP4 DUP2 SLOAD DUP2 LT PUSH2 0x1870 JUMPI PUSH2 0x1870 PUSH2 0x1EA8 JUMP JUMPDEST SWAP1 PUSH1 0x0 MSTORE PUSH1 0x20 PUSH1 0x0 KECCAK256 SWAP1 PUSH1 0xA MUL ADD PUSH1 0x6 ADD SLOAD PUSH1 0x3 PUSH1 0x0 DUP3 DUP3 SLOAD PUSH2 0x1893 SWAP2 SWAP1 PUSH2 0x1F26 JUMP JUMPDEST SWAP1 SWAP2 SSTORE POP POP PUSH1 0x40 DUP1 MLOAD DUP5 DUP2 MSTORE PUSH1 0x60 PUSH1 0x20 DUP3 ADD DUP2 SWAP1 MSTORE PUSH1 0x10 SWAP1 DUP3 ADD MSTORE PUSH16 0x141493D29150D508141052510813D555 PUSH1 0x82 SHL PUSH1 0x80 DUP3 ADD MSTORE TIMESTAMP DUP2 DUP4 ADD MSTORE SWAP1 MLOAD CALLER SWAP2 PUSH1 0x0 DUP1 MLOAD PUSH1 0x20 PUSH2 0x1F7F DUP4 CODECOPY DUP2 MLOAD SWAP2 MSTORE SWAP2 SWAP1 DUP2 SWAP1 SUB PUSH1 0xA0 ADD SWAP1 LOG2 POP POP POP JUMP JUMPDEST PUSH1 0x0 DUP3 PUSH1 0x1 PUSH1 0x1 PUSH1 0xA0 SHL SUB AND DUP3 PUSH1 0x40 MLOAD PUSH1 0x0 PUSH1 0x40 MLOAD DUP1 DUP4 SUB DUP2 DUP6 DUP8 GAS CALL SWAP3 POP POP POP RETURNDATASIZE DUP1 PUSH1 0x0 DUP2 EQ PUSH2 0x193B JUMPI PUSH1 0x40 MLOAD SWAP2 POP PUSH1 0x1F NOT PUSH1 0x3F RETURNDATASIZE ADD AND DUP3 ADD PUSH1 0x40 MSTORE RETURNDATASIZE DUP3 MSTORE RETURNDATASIZE PUSH1 0x0 PUSH1 0x20 DUP5 ADD RETURNDATACOPY PUSH2 0x1940 JUMP JUMPDEST PUSH1 0x60 SWAP2 POP JUMPDEST POP POP SWAP1 POP DUP1 PUSH2 0x194E JUMPI PUSH1 0x0 DUP1 REVERT JUMPDEST POP POP POP JUMP JUMPDEST PUSH1 0x40 MLOAD DUP1 PUSH2 0x140 ADD PUSH1 0x40 MSTORE DUP1 PUSH1 0x0 DUP2 MSTORE PUSH1 0x20 ADD PUSH1 0x0 PUSH1 0x1 PUSH1 0x1 PUSH1 0xA0 SHL SUB AND DUP2 MSTORE PUSH1 0x20 ADD PUSH1 0x60 DUP2 MSTORE PUSH1 0x20 ADD PUSH1 0x60 DUP2 MSTORE PUSH1 0x20 ADD PUSH1 0x60 DUP2 MSTORE PUSH1 0x20 ADD PUSH1 0x0 DUP2 MSTORE PUSH1 0x20 ADD PUSH1 0x0 DUP2 MSTORE PUSH1 0x20 ADD PUSH1 0x0 DUP2 MSTORE PUSH1 0x20 ADD PUSH1 0x0 DUP2 MSTORE PUSH1 0x20 ADD PUSH1 0x0 PUSH1 0x4 DUP2 GT ISZERO PUSH2 0x19BA JUMPI PUSH2 0x19BA PUSH2 0x1CF2 JUMP JUMPDEST SWAP1 MSTORE SWAP1 JUMP JUMPDEST DUP3 DUP1 SLOAD PUSH2 0x19CB SWAP1 PUSH2 0x1EEB JUMP JUMPDEST SWAP1 PUSH1 0x0 MSTORE PUSH1 0x20 PUSH1 0x0 KECCAK256 SWAP1 PUSH1 0x1F ADD PUSH1 0x20 SWAP1 DIV DUP2 ADD SWAP3 DUP3 PUSH2 0x19ED JUMPI PUSH1 0x0 DUP6 SSTORE PUSH2 0x1A33 JUMP JUMPDEST DUP3 PUSH1 0x1F LT PUSH2 0x1A06 JUMPI DUP1 MLOAD PUSH1 0xFF NOT AND DUP4 DUP1 ADD OR DUP6 SSTORE PUSH2 0x1A33 JUMP JUMPDEST DUP3 DUP1 ADD PUSH1 0x1 ADD DUP6 SSTORE DUP3 ISZERO PUSH2 0x1A33 JUMPI SWAP2 DUP3 ADD JUMPDEST DUP3 DUP2 GT ISZERO PUSH2 0x1A33 JUMPI DUP3 MLOAD DUP3 SSTORE SWAP2 PUSH1 0x20 ADD SWAP2 SWAP1 PUSH1 0x1 ADD SWAP1 PUSH2 0x1A18 JUMP JUMPDEST POP PUSH2 0x1A3F SWAP3 SWAP2 POP PUSH2 0x1A43 JUMP JUMPDEST POP SWAP1 JUMP JUMPDEST JUMPDEST DUP1 DUP3 GT ISZERO PUSH2 0x1A3F JUMPI PUSH1 0x0 DUP2 SSTORE PUSH1 0x1 ADD PUSH2 0x1A44 JUMP JUMPDEST PUSH4 0x4E487B71 PUSH1 0xE0 SHL PUSH1 0x0 MSTORE PUSH1 0x41 PUSH1 0x4 MSTORE PUSH1 0x24 PUSH1 0x0 REVERT JUMPDEST PUSH1 0x0 DUP3 PUSH1 0x1F DUP4 ADD SLT PUSH2 0x1A7F JUMPI PUSH1 0x0 DUP1 REVERT JUMPDEST DUP2 CALLDATALOAD PUSH8 0xFFFFFFFFFFFFFFFF DUP1 DUP3 GT ISZERO PUSH2 0x1A9A JUMPI PUSH2 0x1A9A PUSH2 0x1A58 JUMP JUMPDEST PUSH1 0x40 MLOAD PUSH1 0x1F DUP4 ADD PUSH1 0x1F NOT SWAP1 DUP2 AND PUSH1 0x3F ADD AND DUP2 ADD SWAP1 DUP3 DUP3 GT DUP2 DUP4 LT OR ISZERO PUSH2 0x1AC2 JUMPI PUSH2 0x1AC2 PUSH2 0x1A58 JUMP JUMPDEST DUP2 PUSH1 0x40 MSTORE DUP4 DUP2 MSTORE DUP7 PUSH1 0x20 DUP6 DUP9 ADD ADD GT ISZERO PUSH2 0x1ADB JUMPI PUSH1 0x0 DUP1 REVERT JUMPDEST DUP4 PUSH1 0x20 DUP8 ADD PUSH1 0x20 DUP4 ADD CALLDATACOPY PUSH1 0x0 PUSH1 0x20 DUP6 DUP4 ADD ADD MSTORE DUP1 SWAP5 POP POP POP POP POP SWAP3 SWAP2 POP POP JUMP JUMPDEST PUSH1 0x0 DUP1 PUSH1 0x0 DUP1 PUSH1 0x80 DUP6 DUP8 SUB SLT ISZERO PUSH2 0x1B11 JUMPI PUSH1 0x0 DUP1 REVERT JUMPDEST DUP5 CALLDATALOAD PUSH8 0xFFFFFFFFFFFFFFFF DUP1 DUP3 GT ISZERO PUSH2 0x1B29 JUMPI PUSH1 0x0 DUP1 REVERT JUMPDEST PUSH2 0x1B35 DUP9 DUP4 DUP10 ADD PUSH2 0x1A6E JUMP JUMPDEST SWAP6 POP PUSH1 0x20 DUP8 ADD CALLDATALOAD SWAP2 POP DUP1 DUP3 GT ISZERO PUSH2 0x1B4B JUMPI PUSH1 0x0 DUP1 REVERT JUMPDEST PUSH2 0x1B57 DUP9 DUP4 DUP10 ADD PUSH2 0x1A6E JUMP JUMPDEST SWAP5 POP PUSH1 0x40 DUP8 ADD CALLDATALOAD SWAP2 POP DUP1 DUP3 GT ISZERO PUSH2 0x1B6D JUMPI PUSH1 0x0 DUP1 REVERT JUMPDEST POP PUSH2 0x1B7A DUP8 DUP3 DUP9 ADD PUSH2 0x1A6E JUMP JUMPDEST SWAP5 SWAP8 SWAP4 SWAP7 POP SWAP4 SWAP5 PUSH1 0x60 ADD CALLDATALOAD SWAP4 POP POP POP JUMP JUMPDEST PUSH1 0x0 PUSH1 0x20 DUP3 DUP5 SUB SLT ISZERO PUSH2 0x1B9D JUMPI PUSH1 0x0 DUP1 REVERT JUMPDEST POP CALLDATALOAD SWAP2 SWAP1 POP JUMP JUMPDEST PUSH1 0x0 DUP1 PUSH1 0x0 DUP1 PUSH1 0x80 DUP6 DUP8 SUB SLT ISZERO PUSH2 0x1BBA JUMPI PUSH1 0x0 DUP1 REVERT JUMPDEST DUP5 CALLDATALOAD SWAP4 POP PUSH1 0x20 DUP6 ADD CALLDATALOAD PUSH8 0xFFFFFFFFFFFFFFFF DUP1 DUP3 GT ISZERO PUSH2 0x1BD9 JUMPI PUSH1 0x0 DUP1 REVERT JUMPDEST PUSH2 0x1BE5 DUP9 DUP4 DUP10 ADD PUSH2 0x1A6E JUMP JUMPDEST SWAP5 POP PUSH1 0x40 DUP8 ADD CALLDATALOAD SWAP2 POP DUP1 DUP3 GT ISZERO PUSH2 0x1BFB JUMPI PUSH1 0x0 DUP1 REVERT JUMPDEST PUSH2 0x1C07 DUP9 DUP4 DUP10 ADD PUSH2 0x1A6E JUMP JUMPDEST SWAP4 POP PUSH1 0x60 DUP8 ADD CALLDATALOAD SWAP2 POP DUP1 DUP3 GT ISZERO PUSH2 0x1C1D JUMPI PUSH1 0x0 DUP1 REVERT JUMPDEST POP PUSH2 0x1C2A DUP8 DUP3 DUP9 ADD PUSH2 0x1A6E JUMP JUMPDEST SWAP2 POP POP SWAP3 SWAP6 SWAP2 SWAP5 POP SWAP3 POP JUMP JUMPDEST PUSH1 0x20 DUP1 DUP3 MSTORE DUP3 MLOAD DUP3 DUP3 ADD DUP2 SWAP1 MSTORE PUSH1 0x0 SWAP2 SWAP1 PUSH1 0x40 SWAP1 DUP2 DUP6 ADD SWAP1 DUP7 DUP5 ADD DUP6 JUMPDEST DUP3 DUP2 LT ISZERO PUSH2 0x1C98 JUMPI DUP2 MLOAD DUP1 MLOAD PUSH1 0x1 PUSH1 0x1 PUSH1 0xA0 SHL SUB AND DUP6 MSTORE DUP7 DUP2 ADD MLOAD DUP8 DUP7 ADD MSTORE DUP6 DUP2 ADD MLOAD DUP7 DUP7 ADD MSTORE PUSH1 0x60 SWAP1 DUP2 ADD MLOAD ISZERO ISZERO SWAP1 DUP6 ADD MSTORE PUSH1 0x80 SWAP1 SWAP4 ADD SWAP3 SWAP1 DUP6 ADD SWAP1 PUSH1 0x1 ADD PUSH2 0x1C53 JUMP JUMPDEST POP SWAP2 SWAP8 SWAP7 POP POP POP POP POP POP POP JUMP JUMPDEST PUSH1 0x0 DUP2 MLOAD DUP1 DUP5 MSTORE PUSH1 0x0 JUMPDEST DUP2 DUP2 LT ISZERO PUSH2 0x1CCB JUMPI PUSH1 0x20 DUP2 DUP6 ADD DUP2 ADD MLOAD DUP7 DUP4 ADD DUP3 ADD MSTORE ADD PUSH2 0x1CAF JUMP JUMPDEST DUP2 DUP2 GT ISZERO PUSH2 0x1CDD JUMPI PUSH1 0x0 PUSH1 0x20 DUP4 DUP8 ADD ADD MSTORE JUMPDEST POP PUSH1 0x1F ADD PUSH1 0x1F NOT AND SWAP3 SWAP1 SWAP3 ADD PUSH1 0x20 ADD SWAP3 SWAP2 POP POP JUMP JUMPDEST PUSH4 0x4E487B71 PUSH1 0xE0 SHL PUSH1 0x0 MSTORE PUSH1 0x21 PUSH1 0x4 MSTORE PUSH1 0x24 PUSH1 0x0 REVERT JUMPDEST PUSH1 0x5 DUP2 LT PUSH2 0x1D26 JUMPI PUSH4 0x4E487B71 PUSH1 0xE0 SHL PUSH1 0x0 MSTORE PUSH1 0x21 PUSH1 0x4 MSTORE PUSH1 0x24 PUSH1 0x0 REVERT JUMPDEST SWAP1 MSTORE JUMP JUMPDEST PUSH1 0x0 PUSH2 0x140 DUP3 MLOAD DUP5 MSTORE PUSH1 0x20 DUP4 ADD MLOAD PUSH2 0x1D4D PUSH1 0x20 DUP7 ADD DUP3 PUSH1 0x1 PUSH1 0x1 PUSH1 0xA0 SHL SUB AND SWAP1 MSTORE JUMP JUMPDEST POP PUSH1 0x40 DUP4 ADD MLOAD DUP2 PUSH1 0x40 DUP7 ADD MSTORE PUSH2 0x1D65 DUP3 DUP7 ADD DUP3 PUSH2 0x1CA5 JUMP JUMPDEST SWAP2 POP POP PUSH1 0x60 DUP4 ADD MLOAD DUP5 DUP3 SUB PUSH1 0x60 DUP7 ADD MSTORE PUSH2 0x1D7F DUP3 DUP3 PUSH2 0x1CA5 JUMP JUMPDEST SWAP2 POP POP PUSH1 0x80 DUP4 ADD MLOAD DUP5 DUP3 SUB PUSH1 0x80 DUP7 ADD MSTORE PUSH2 0x1D99 DUP3 DUP3 PUSH2 0x1CA5 JUMP JUMPDEST SWAP2 POP POP PUSH1 0xA0 DUP4 ADD MLOAD PUSH1 0xA0 DUP6 ADD MSTORE PUSH1 0xC0 DUP4 ADD MLOAD PUSH1 0xC0 DUP6 ADD MSTORE PUSH1 0xE0 DUP4 ADD MLOAD PUSH1 0xE0 DUP6 ADD MSTORE PUSH2 0x100 DUP1 DUP5 ADD MLOAD DUP2 DUP7 ADD MSTORE POP PUSH2 0x120 DUP1 DUP5 ADD MLOAD PUSH2 0x1DD9 DUP3 DUP8 ADD DUP3 PUSH2 0x1D08 JUMP JUMPDEST POP SWAP1 SWAP5 SWAP4 POP POP POP POP JUMP JUMPDEST PUSH1 0x0 PUSH1 0x20 DUP1 DUP4 ADD DUP2 DUP5 MSTORE DUP1 DUP6 MLOAD DUP1 DUP4 MSTORE PUSH1 0x40 DUP7 ADD SWAP2 POP PUSH1 0x40 DUP2 PUSH1 0x5 SHL DUP8 ADD ADD SWAP3 POP DUP4 DUP8 ADD PUSH1 0x0 JUMPDEST DUP3 DUP2 LT ISZERO PUSH2 0x1E38 JUMPI PUSH1 0x3F NOT DUP9 DUP7 SUB ADD DUP5 MSTORE PUSH2 0x1E26 DUP6 DUP4 MLOAD PUSH2 0x1D2A JUMP JUMPDEST SWAP5 POP SWAP3 DUP6 ADD SWAP3 SWAP1 DUP6 ADD SWAP1 PUSH1 0x1 ADD PUSH2 0x1E0A JUMP JUMPDEST POP SWAP3 SWAP8 SWAP7 POP POP POP POP POP POP POP JUMP JUMPDEST PUSH1 0x20 DUP2 MSTORE PUSH1 0x0 PUSH2 0x1E58 PUSH1 0x20 DUP4 ADD DUP5 PUSH2 0x1D2A JUMP JUMPDEST SWAP4 SWAP3 POP POP POP JUMP JUMPDEST PUSH4 0x4E487B71 PUSH1 0xE0 SHL PUSH1 0x0 MSTORE PUSH1 0x11 PUSH1 0x4 MSTORE PUSH1 0x24 PUSH1 0x0 REVERT JUMPDEST PUSH1 0x0 DUP3 NOT DUP3 GT ISZERO PUSH2 0x1E88 JUMPI PUSH2 0x1E88 PUSH2 0x1E5F JUMP JUMPDEST POP ADD SWAP1 JUMP JUMPDEST PUSH1 0x0 PUSH1 0x0 NOT DUP3 EQ ISZERO PUSH2 0x1EA1 JUMPI PUSH2 0x1EA1 PUSH2 0x1E5F JUMP JUMPDEST POP PUSH1 0x1 ADD SWAP1 JUMP JUMPDEST PUSH4 0x4E487B71 PUSH1 0xE0 SHL PUSH1 0x0 MSTORE PUSH1 0x32 PUSH1 0x4 MSTORE PUSH1 0x24 PUSH1 0x0 REVERT JUMPDEST PUSH1 0x20 DUP1 DUP3 MSTORE PUSH1 0x13 SWAP1 DUP3 ADD MSTORE PUSH19 0x556E617574686F72697A656420456E74697479 PUSH1 0x68 SHL PUSH1 0x40 DUP3 ADD MSTORE PUSH1 0x60 ADD SWAP1 JUMP JUMPDEST PUSH1 0x1 DUP2 DUP2 SHR SWAP1 DUP3 AND DUP1 PUSH2 0x1EFF JUMPI PUSH1 0x7F DUP3 AND SWAP2 POP JUMPDEST PUSH1 0x20 DUP3 LT DUP2 EQ ISZERO PUSH2 0x1F20 JUMPI PUSH4 0x4E487B71 PUSH1 0xE0 SHL PUSH1 0x0 MSTORE PUSH1 0x22 PUSH1 0x4 MSTORE PUSH1 0x24 PUSH1 0x0 REVERT JUMPDEST POP SWAP2 SWAP1 POP JUMP JUMPDEST PUSH1 0x0 DUP3 DUP3 LT ISZERO PUSH2 0x1F38 JUMPI PUSH2 0x1F38 PUSH2 0x1E5F JUMP JUMPDEST POP SUB SWAP1 JUMP JUMPDEST PUSH1 0x0 DUP2 PUSH1 0x0 NOT DIV DUP4 GT DUP3 ISZERO ISZERO AND ISZERO PUSH2 0x1F57 JUMPI PUSH2 0x1F57 PUSH2 0x1E5F JUMP JUMPDEST POP MUL SWAP1 JUMP JUMPDEST PUSH1 0x0 DUP3 PUSH2 0x1F79 JUMPI PUSH4 0x4E487B71 PUSH1 0xE0 SHL PUSH1 0x0 MSTORE PUSH1 0x12 PUSH1 0x4 MSTORE PUSH1 0x24 PUSH1 0x0 REVERT JUMPDEST POP DIV SWAP1 JUMP INVALID 0xAE 0xE8 0xE5 0xD3 0xBB 0xB2 0xF7 BYTE SWAP6 SHL JUMP ORIGIN 0xCE 0xE2 0xF PUSH27 0xC487B9F8AB4F66A236F7694B13AF7C6AA264697066735822122077 REVERT BALANCE 0xA6 0xD7 TIMESTAMP DUP10 LT MULMOD 0x2A 0xA7 0xF6 0xC4 EXTCODECOPY 0xC3 0x5F SWAP13 EXTCODECOPY 0xDD PUSH15 0xB651E506EA9A1EFAAA470DD764736F PUSH13 0x634300080B0033000000000000 "},"methodIdentifiers":{"backProject(uint256)":"9f39a194","balance()":"b69ef8a8","changeTax(uint256)":"3e45c8af","createProject(string,string,string,uint256)":"1ca73896","deleteProject(uint256)":"4cd0cb28","getBackers(uint256)":"c9168b72","getProject(uint256)":"f0f3f2c8","getProjects()":"dcc60128","owner()":"8da5cb5b","payOutProject(uint256)":"b531dcba","projectCount()":"36fbad26","projectExist(uint256)":"8593054b","projectTax()":"d24cd3ec","stats()":"d80528ae","updateProject(uint256,string,string,string)":"8b9b3fd7"}}}}}